{
  "contractName": "DkimChecker",
  "abi": [
    {
      "constant": true,
      "inputs": [
        {
          "name": "point",
          "type": "uint256[2]"
        },
        {
          "name": "s",
          "type": "uint256"
        }
      ],
      "name": "scalarMult",
      "outputs": [
        {
          "name": "",
          "type": "uint256"
        },
        {
          "name": "",
          "type": "uint256"
        }
      ],
      "payable": false,
      "stateMutability": "view",
      "type": "function"
    },
    {
      "constant": false,
      "inputs": [],
      "name": "renounceOwnership",
      "outputs": [],
      "payable": false,
      "stateMutability": "nonpayable",
      "type": "function"
    },
    {
      "constant": true,
      "inputs": [],
      "name": "oracle",
      "outputs": [
        {
          "name": "",
          "type": "address"
        }
      ],
      "payable": false,
      "stateMutability": "view",
      "type": "function"
    },
    {
      "constant": true,
      "inputs": [],
      "name": "owner",
      "outputs": [
        {
          "name": "",
          "type": "address"
        }
      ],
      "payable": false,
      "stateMutability": "view",
      "type": "function"
    },
    {
      "constant": true,
      "inputs": [],
      "name": "isOwner",
      "outputs": [
        {
          "name": "",
          "type": "bool"
        }
      ],
      "payable": false,
      "stateMutability": "view",
      "type": "function"
    },
    {
      "constant": true,
      "inputs": [
        {
          "name": "_a",
          "type": "uint256[2]"
        },
        {
          "name": "_b",
          "type": "uint256[2]"
        }
      ],
      "name": "ecAddVec",
      "outputs": [
        {
          "name": "",
          "type": "uint256[2]"
        }
      ],
      "payable": false,
      "stateMutability": "view",
      "type": "function"
    },
    {
      "constant": true,
      "inputs": [
        {
          "name": "",
          "type": "bytes32"
        },
        {
          "name": "",
          "type": "bytes32"
        }
      ],
      "name": "dkimKeysEd",
      "outputs": [
        {
          "name": "x",
          "type": "uint256"
        },
        {
          "name": "y",
          "type": "uint256"
        }
      ],
      "payable": false,
      "stateMutability": "view",
      "type": "function"
    },
    {
      "constant": false,
      "inputs": [
        {
          "name": "newOwner",
          "type": "address"
        }
      ],
      "name": "transferOwnership",
      "outputs": [],
      "payable": false,
      "stateMutability": "nonpayable",
      "type": "function"
    },
    {
      "constant": true,
      "inputs": [
        {
          "name": "",
          "type": "bytes32"
        },
        {
          "name": "",
          "type": "bytes32"
        }
      ],
      "name": "dkimKeysRsa",
      "outputs": [
        {
          "name": "exponent",
          "type": "bytes"
        },
        {
          "name": "modulus",
          "type": "bytes"
        }
      ],
      "payable": false,
      "stateMutability": "view",
      "type": "function"
    },
    {
      "inputs": [
        {
          "name": "_oracle",
          "type": "address"
        }
      ],
      "payable": false,
      "stateMutability": "nonpayable",
      "type": "constructor"
    },
    {
      "anonymous": false,
      "inputs": [
        {
          "indexed": false,
          "name": "",
          "type": "bool"
        }
      ],
      "name": "ReturnVal",
      "type": "event"
    },
    {
      "anonymous": false,
      "inputs": [
        {
          "indexed": true,
          "name": "previousOwner",
          "type": "address"
        },
        {
          "indexed": true,
          "name": "newOwner",
          "type": "address"
        }
      ],
      "name": "OwnershipTransferred",
      "type": "event"
    },
    {
      "constant": false,
      "inputs": [
        {
          "name": "_selector",
          "type": "string"
        },
        {
          "name": "_domain",
          "type": "string"
        },
        {
          "name": "_exponent",
          "type": "bytes"
        },
        {
          "name": "_modulus",
          "type": "bytes"
        }
      ],
      "name": "setDkimKeyRsa",
      "outputs": [
        {
          "name": "",
          "type": "bool"
        }
      ],
      "payable": false,
      "stateMutability": "nonpayable",
      "type": "function"
    },
    {
      "constant": false,
      "inputs": [
        {
          "name": "_selector",
          "type": "string"
        },
        {
          "name": "_domain",
          "type": "string"
        },
        {
          "name": "x",
          "type": "uint256"
        },
        {
          "name": "y",
          "type": "uint256"
        }
      ],
      "name": "setDkimKeyEd",
      "outputs": [
        {
          "name": "",
          "type": "bool"
        }
      ],
      "payable": false,
      "stateMutability": "nonpayable",
      "type": "function"
    },
    {
      "constant": true,
      "inputs": [
        {
          "name": "_selector",
          "type": "string"
        },
        {
          "name": "_domain",
          "type": "string"
        }
      ],
      "name": "getDkimKeyRsa",
      "outputs": [
        {
          "name": "",
          "type": "bytes"
        },
        {
          "name": "",
          "type": "bytes"
        }
      ],
      "payable": false,
      "stateMutability": "view",
      "type": "function"
    },
    {
      "constant": true,
      "inputs": [
        {
          "name": "_selector",
          "type": "string"
        },
        {
          "name": "_domain",
          "type": "string"
        }
      ],
      "name": "getDkimKeyEd",
      "outputs": [
        {
          "name": "x",
          "type": "uint256"
        },
        {
          "name": "y",
          "type": "uint256"
        }
      ],
      "payable": false,
      "stateMutability": "view",
      "type": "function"
    },
    {
      "constant": false,
      "inputs": [
        {
          "name": "body",
          "type": "bytes"
        },
        {
          "name": "bodyHash",
          "type": "bytes20"
        }
      ],
      "name": "checkBodySHA1",
      "outputs": [
        {
          "name": "",
          "type": "bool"
        }
      ],
      "payable": false,
      "stateMutability": "nonpayable",
      "type": "function"
    },
    {
      "constant": false,
      "inputs": [
        {
          "name": "body",
          "type": "bytes"
        },
        {
          "name": "bodyHash",
          "type": "bytes32"
        }
      ],
      "name": "checkBodySHA256",
      "outputs": [
        {
          "name": "",
          "type": "bool"
        }
      ],
      "payable": false,
      "stateMutability": "nonpayable",
      "type": "function"
    },
    {
      "constant": false,
      "inputs": [
        {
          "name": "_selector",
          "type": "string"
        },
        {
          "name": "_domain",
          "type": "string"
        },
        {
          "name": "_sig",
          "type": "bytes"
        },
        {
          "name": "_hash",
          "type": "bytes32"
        }
      ],
      "name": "verifyRSASHA256",
      "outputs": [
        {
          "name": "",
          "type": "bool"
        }
      ],
      "payable": false,
      "stateMutability": "nonpayable",
      "type": "function"
    },
    {
      "constant": false,
      "inputs": [
        {
          "name": "_selector",
          "type": "string"
        },
        {
          "name": "_domain",
          "type": "string"
        },
        {
          "name": "_sig",
          "type": "bytes"
        },
        {
          "name": "_hash",
          "type": "bytes20"
        }
      ],
      "name": "verifyRSASHA1",
      "outputs": [
        {
          "name": "",
          "type": "bool"
        }
      ],
      "payable": false,
      "stateMutability": "nonpayable",
      "type": "function"
    },
    {
      "constant": false,
      "inputs": [
        {
          "name": "_selector",
          "type": "string"
        },
        {
          "name": "_domain",
          "type": "string"
        },
        {
          "name": "_R",
          "type": "uint256[2]"
        },
        {
          "name": "_lhs",
          "type": "uint256[2]"
        },
        {
          "name": "_hash",
          "type": "uint256"
        }
      ],
      "name": "verifyED25519",
      "outputs": [
        {
          "name": "",
          "type": "bool"
        }
      ],
      "payable": false,
      "stateMutability": "nonpayable",
      "type": "function"
    }
  ],
  "bytecode": "0x608060405234801561001057600080fd5b506040516020806130408339810180604052602081101561003057600080fd5b5051600080546001600160a01b03191633178082556040516001600160a01b039190911691907f8be0079c531659141344cd1fd0a4f28419497f9722a3daafe3b4186f6b6457e0908290a3600180546001600160a01b0319166001600160a01b0392909216919091179055612f96806100aa6000396000f3fe608060405234801561001057600080fd5b50600436106101165760003560e01c8063af0df022116100a2578063dbd1195c11610071578063dbd1195c14610c68578063e12e464c14610c8b578063e62b259714610db9578063f2fde38b14610f73578063f3ae1b3114610f9957610116565b8063af0df0221461086c578063b217882514610995578063c0fb8ba914610a3b578063cb7034d214610bb857610116565b80637dc0d1d0116100e95780637dc0d1d0146105565780638da5cb5b1461057a5780638f32d59b146105825780639b0fd8cd1461058a578063a2226ef61461063957610116565b806318a807da1461011b578063500d8107146102df5780635a6eb94e14610345578063715018a61461054c575b600080fd5b6102cb6004803603608081101561013157600080fd5b810190602081018135600160201b81111561014b57600080fd5b82018360208201111561015d57600080fd5b803590602001918460018302840111600160201b8311171561017e57600080fd5b91908080601f0160208091040260200160405190810160405280939291908181526020018383808284376000920191909152509295949360208101935035915050600160201b8111156101d057600080fd5b8201836020820111156101e257600080fd5b803590602001918460018302840111600160201b8311171561020357600080fd5b91908080601f0160208091040260200160405190810160405280939291908181526020018383808284376000920191909152509295949360208101935035915050600160201b81111561025557600080fd5b82018360208201111561026757600080fd5b803590602001918460018302840111600160201b8311171561028857600080fd5b91908080601f0160208091040260200160405190810160405280939291908181526020018383808284376000920191909152509295505091359250610fbc915050565b604080519115158252519081900360200190f35b61032c600480360360608110156102f557600080fd5b6040805180820182529183019291818301918390600290839083908082843760009201919091525091945050903591506112889050565b6040805192835260208301919091528051918290030190f35b61046e6004803603604081101561035b57600080fd5b810190602081018135600160201b81111561037557600080fd5b82018360208201111561038757600080fd5b803590602001918460018302840111600160201b831117156103a857600080fd5b91908080601f0160208091040260200160405190810160405280939291908181526020018383808284376000920191909152509295949360208101935035915050600160201b8111156103fa57600080fd5b82018360208201111561040c57600080fd5b803590602001918460018302840111600160201b8311171561042d57600080fd5b91908080601f01602080910402602001604051908101604052809392919081815260200183838082843760009201919091525092955061133d945050505050565b604051808060200180602001838103835285818151815260200191508051906020019080838360005b838110156104af578181015183820152602001610497565b50505050905090810190601f1680156104dc5780820380516001836020036101000a031916815260200191505b50838103825284518152845160209182019186019080838360005b8381101561050f5781810151838201526020016104f7565b50505050905090810190601f16801561053c5780820380516001836020036101000a031916815260200191505b5094505050505060405180910390f35b6105546115ab565b005b61055e611651565b604080516001600160a01b039092168252519081900360200190f35b61055e611660565b6102cb611670565b6105fe600480360360808110156105a057600080fd5b6040805180820182529183019291818301918390600290839083908082843760009201919091525050604080518082018252929594938181019392509060029083908390808284376000920191909152509194506116819350505050565b6040518082600260200280838360005b8381101561062657818101518382015260200161060e565b5050505090500191505060405180910390f35b6102cb6004803603608081101561064f57600080fd5b810190602081018135600160201b81111561066957600080fd5b82018360208201111561067b57600080fd5b803590602001918460018302840111600160201b8311171561069c57600080fd5b91908080601f0160208091040260200160405190810160405280939291908181526020018383808284376000920191909152509295949360208101935035915050600160201b8111156106ee57600080fd5b82018360208201111561070057600080fd5b803590602001918460018302840111600160201b8311171561072157600080fd5b91908080601f0160208091040260200160405190810160405280939291908181526020018383808284376000920191909152509295949360208101935035915050600160201b81111561077357600080fd5b82018360208201111561078557600080fd5b803590602001918460018302840111600160201b831117156107a657600080fd5b91908080601f0160208091040260200160405190810160405280939291908181526020018383808284376000920191909152509295949360208101935035915050600160201b8111156107f857600080fd5b82018360208201111561080a57600080fd5b803590602001918460018302840111600160201b8311171561082b57600080fd5b91908080601f01602080910402602001604051908101604052809392919081815260200183838082843760009201919091525092955061172b945050505050565b61032c6004803603604081101561088257600080fd5b810190602081018135600160201b81111561089c57600080fd5b8201836020820111156108ae57600080fd5b803590602001918460018302840111600160201b831117156108cf57600080fd5b91908080601f0160208091040260200160405190810160405280939291908181526020018383808284376000920191909152509295949360208101935035915050600160201b81111561092157600080fd5b82018360208201111561093357600080fd5b803590602001918460018302840111600160201b8311171561095457600080fd5b91908080601f0160208091040260200160405190810160405280939291908181526020018383808284376000920191909152509295506118b7945050505050565b6102cb600480360360408110156109ab57600080fd5b810190602081018135600160201b8111156109c557600080fd5b8201836020820111156109d757600080fd5b803590602001918460018302840111600160201b831117156109f857600080fd5b91908080601f01602080910402602001604051908101604052809392919081815260200183838082843760009201919091525092955050913592506119e5915050565b6102cb600480360360e0811015610a5157600080fd5b810190602081018135600160201b811115610a6b57600080fd5b820183602082011115610a7d57600080fd5b803590602001918460018302840111600160201b83111715610a9e57600080fd5b91908080601f0160208091040260200160405190810160405280939291908181526020018383808284376000920191909152509295949360208101935035915050600160201b811115610af057600080fd5b820183602082011115610b0257600080fd5b803590602001918460018302840111600160201b83111715610b2357600080fd5b91908080601f01602080910402602001604051908101604052809392919081815260200183838082843760009201919091525050604080518082018252939695948181019493509150600290839083908082843760009201919091525050604080518082018252929594938181019392509060029083908390808284376000920191909152509194505090359150611aa19050565b6102cb60048036036040811015610bce57600080fd5b810190602081018135600160201b811115610be857600080fd5b820183602082011115610bfa57600080fd5b803590602001918460018302840111600160201b83111715610c1b57600080fd5b91908080601f016020809104026020016040519081016040528093929190818152602001838380828437600092019190915250929550505090356001600160601b0319169150611c639050565b61032c60048036036040811015610c7e57600080fd5b5080359060200135611cad565b6102cb60048036036080811015610ca157600080fd5b810190602081018135600160201b811115610cbb57600080fd5b820183602082011115610ccd57600080fd5b803590602001918460018302840111600160201b83111715610cee57600080fd5b91908080601f0160208091040260200160405190810160405280939291908181526020018383808284376000920191909152509295949360208101935035915050600160201b811115610d4057600080fd5b820183602082011115610d5257600080fd5b803590602001918460018302840111600160201b83111715610d7357600080fd5b91908080601f0160208091040260200160405190810160405280939291908181526020018383808284376000920191909152509295505082359350505060200135611cd1565b6102cb60048036036080811015610dcf57600080fd5b810190602081018135600160201b811115610de957600080fd5b820183602082011115610dfb57600080fd5b803590602001918460018302840111600160201b83111715610e1c57600080fd5b91908080601f0160208091040260200160405190810160405280939291908181526020018383808284376000920191909152509295949360208101935035915050600160201b811115610e6e57600080fd5b820183602082011115610e8057600080fd5b803590602001918460018302840111600160201b83111715610ea157600080fd5b91908080601f0160208091040260200160405190810160405280939291908181526020018383808284376000920191909152509295949360208101935035915050600160201b811115610ef357600080fd5b820183602082011115610f0557600080fd5b803590602001918460018302840111600160201b83111715610f2657600080fd5b91908080601f016020809104026020016040519081016040528093929190818152602001838380828437600092019190915250929550505090356001600160601b0319169150611e339050565b61055460048036036020811015610f8957600080fd5b50356001600160a01b031661210b565b61046e60048036036040811015610faf57600080fd5b5080359060200135612173565b6000610fc6612d87565b60026000876040516020018082805190602001908083835b60208310610ffd5780518252601f199092019160209182019101610fde565b6001836020036101000a0380198251168184511680821785525050505050509050019150506040516020818303038152906040528051906020012081526020019081526020016000206000866040516020018082805190602001908083835b6020831061107b5780518252601f19909201916020918201910161105c565b6001836020036101000a038019825116818451168082178552505050505050905001915050604051602081830303815290604052805190602001208152602001908152602001600020604051806040016040529081600082018054600181600116156101000203166002900480601f0160208091040260200160405190810160405280929190818152602001828054600181600116156101000203166002900480156111685780601f1061113d57610100808354040283529160200191611168565b820191906000526020600020905b81548152906001019060200180831161114b57829003601f168201915b50505050508152602001600182018054600181600116156101000203166002900480601f01602080910402602001604051908101604052809291908181526020018280546001816001161561010002031660029004801561120a5780601f106111df5761010080835404028352916020019161120a565b820191906000526020600020905b8154815290600101906020018083116111ed57829003601f168201915b50505050508152505090506000606061122c86846000015185602001516122b6565b9092509050600082801561125557508151611252908390601f190163ffffffff61239c16565b86145b6040805182151581529051919250600080516020612f18833981519152919081900360200190a198975050505050505050565b600080611293612da1565b61129b612da1565b85518252602080870151838201526001604080850182905260008452918301819052908201525b84156112f85784600116600114156112e1576112de81836123b8565b90505b600185901c94506112f18261254e565b91506112c2565b60006113078260400151612691565b90506013600160ff1b03825182900982526013600160ff1b03818360200151096020830181905291519791965090945050505050565b606080611348612d87565b60026000866040516020018082805190602001908083835b6020831061137f5780518252601f199092019160209182019101611360565b6001836020036101000a0380198251168184511680821785525050505050509050019150506040516020818303038152906040528051906020012081526020019081526020016000206000856040516020018082805190602001908083835b602083106113fd5780518252601f1990920191602091820191016113de565b6001836020036101000a038019825116818451168082178552505050505050905001915050604051602081830303815290604052805190602001208152602001908152602001600020604051806040016040529081600082018054600181600116156101000203166002900480601f0160208091040260200160405190810160405280929190818152602001828054600181600116156101000203166002900480156114ea5780601f106114bf576101008083540402835291602001916114ea565b820191906000526020600020905b8154815290600101906020018083116114cd57829003601f168201915b50505050508152602001600182018054600181600116156101000203166002900480601f01602080910402602001604051908101604052809291908181526020018280546001816001161561010002031660029004801561158c5780601f106115615761010080835404028352916020019161158c565b820191906000526020600020905b81548152906001019060200180831161156f57829003601f168201915b5050509190925250508151602090920151919791965090945050505050565b6115b3611670565b6116075760408051600160e51b62461bcd02815260206004820181905260248201527f4f776e61626c653a2063616c6c6572206973206e6f7420746865206f776e6572604482015290519081900360640190fd5b600080546040516001600160a01b03909116907f8be0079c531659141344cd1fd0a4f28419497f9722a3daafe3b4186f6b6457e0908390a3600080546001600160a01b0319169055565b6001546001600160a01b031681565b6000546001600160a01b03165b90565b6000546001600160a01b0316331490565b611689612dc2565b611691612da1565b611699612da1565b845182526020808601518382015260016040808501829052865184528683015192840192909252908201526116cc612da1565b6116d683836123b8565b905060006116e78260400151612691565b905060405180604001604052806013600160ff1b038061170357fe5b845184900981526020016013600160ff1b038385602001510990529450505050505b92915050565b6001546000906001600160a01b0316331461177a57604051600160e51b62461bcd028152600401808060200182810382526033815260200180612f386033913960400191505060405180910390fd5b600060026000876040516020018082805190602001908083835b602083106117b35780518252601f199092019160209182019101611794565b6001836020036101000a0380198251168184511680821785525050505050509050019150506040516020818303038152906040528051906020012081526020019081526020016000206000866040516020018082805190602001908083835b602083106118315780518252601f199092019160209182019101611812565b6001836020036101000a038019825116818451168082178552505050505050905001915050604051602081830303815290604052805190602001208152602001908152602001600020905083816000019080519060200190611894929190612de0565b5082516118aa9060018301906020860190612de0565b5060019695505050505050565b6000806118c2612e5e565b60036000866040516020018082805190602001908083835b602083106118f95780518252601f1990920191602091820191016118da565b6001836020036101000a0380198251168184511680821785525050505050509050019150506040516020818303038152906040528051906020012081526020019081526020016000206000856040516020018082805190602001908083835b602083106119775780518252601f199092019160209182019101611958565b51815160209384036101000a60001901801990921691161790526040805192909401828103601f190183528452815191810191909120865285810196909652509283016000208351808501909452805480855260019091015493909401839052509197909650945050505050565b6000806002846040518082805190602001908083835b60208310611a1a5780518252601f1990920191602091820191016119fb565b51815160209384036101000a60001901801990921691161790526040519190930194509192505080830381855afa158015611a59573d6000803e3d6000fd5b5050506040513d6020811015611a6e57600080fd5b50516040805185831481529051919250600080516020612f18833981519152919081900360200190a15060019392505050565b6000611aab612e5e565b60036000886040516020018082805190602001908083835b60208310611ae25780518252601f199092019160209182019101611ac3565b6001836020036101000a0380198251168184511680821785525050505050509050019150506040516020818303038152906040528051906020012081526020019081526020016000206000876040516020018082805190602001908083835b60208310611b605780518252601f199092019160209182019101611b41565b6001836020036101000a038019825116818451168082178552505050505050905001915050604051602081830303815290604052805190602001208152602001908152602001600020604051806040016040529081600082015481526020016001820154815250509050611bd2612dc2565b611bf8604051806040016040528084600001518152602001846020015181525085611288565b60208301528152611c07612dc2565b611c118783611681565b80518751919250600091148015611c2f575060208083015190880151145b6040805182151581529051919250600080516020612f18833981519152919081900360200190a19998505050505050505050565b600080611c6f846126f1565b604080516001600160601b03198681169084161481529051919250600080516020612f18833981519152919081900360200190a15060019392505050565b60036020908152600092835260408084209091529082529020805460019091015482565b6001546000906001600160a01b03163314611d2057604051600160e51b62461bcd028152600401808060200182810382526033815260200180612f386033913960400191505060405180910390fd5b600060036000876040516020018082805190602001908083835b60208310611d595780518252601f199092019160209182019101611d3a565b6001836020036101000a0380198251168184511680821785525050505050509050019150506040516020818303038152906040528051906020012081526020019081526020016000206000866040516020018082805190602001908083835b60208310611dd75780518252601f199092019160209182019101611db8565b51815160209384036101000a60001901801990921691161790526040805192909401828103601f190183528452815191810191909120865285019590955292909201600020968755505050506001928301919091555092915050565b6000611e3d612d87565b60026000876040516020018082805190602001908083835b60208310611e745780518252601f199092019160209182019101611e55565b6001836020036101000a0380198251168184511680821785525050505050509050019150506040516020818303038152906040528051906020012081526020019081526020016000206000866040516020018082805190602001908083835b60208310611ef25780518252601f199092019160209182019101611ed3565b6001836020036101000a038019825116818451168082178552505050505050905001915050604051602081830303815290604052805190602001208152602001908152602001600020604051806040016040529081600082018054600181600116156101000203166002900480601f016020809104026020016040519081016040528092919081815260200182805460018160011615610100020316600290048015611fdf5780601f10611fb457610100808354040283529160200191611fdf565b820191906000526020600020905b815481529060010190602001808311611fc257829003601f168201915b50505050508152602001600182018054600181600116156101000203166002900480601f0160208091040260200160405190810160405280929190818152602001828054600181600116156101000203166002900480156120815780601f1061205657610100808354040283529160200191612081565b820191906000526020600020905b81548152906001019060200180831161206457829003601f168201915b5050505050815250509050600060606120a386846000015185602001516122b6565b90925090506000828015611255575081516120c99083906013190163ffffffff612b0616565b6001600160601b03198781169116146040805182151581529051919250600080516020612f18833981519152919081900360200190a198975050505050505050565b612113611670565b6121675760408051600160e51b62461bcd02815260206004820181905260248201527f4f776e61626c653a2063616c6c6572206973206e6f7420746865206f776e6572604482015290519081900360640190fd5b61217081612b2c565b50565b6002602081815260009384526040808520825292845292829020805483516001821615610100026000190190911692909204601f8101859004850283018501909352828252929091839183018282801561220e5780601f106121e35761010080835404028352916020019161220e565b820191906000526020600020905b8154815290600101906020018083116121f157829003601f168201915b505050505090806001018054600181600116156101000203166002900480601f0160208091040260200160405190810160405280929190818152602001828054600181600116156101000203166002900480156122ac5780601f10612281576101008083540402835291602001916122ac565b820191906000526020600020905b81548152906001019060200180831161228f57829003601f168201915b5050505050905082565b600060606000835185518751606001010190506122d1612e78565b6122e1818363ffffffff612bcf16565b5086516122f590829063ffffffff612c0916565b50855161230990829063ffffffff612c0916565b50845161231d90829063ffffffff612c0916565b5061232e818863ffffffff612c2316565b5061233f818763ffffffff612c2316565b50612350818663ffffffff612c2316565b5084516040519080825280601f01601f19166020018201604052801561237d576020820181803883390190505b50925084516020840183602084510160055afa93505050935093915050565b600082518260200111156123af57600080fd5b50016020015190565b6123c0612da1565b6123c8612e92565b6013600160ff1b03836040015185604001510981526013600160ff1b038151800960208201526013600160ff1b03835185510960408201526013600160ff1b03836020015185602001510960608201526013600160ff1b038082606001518360400151097f52036cee2b6ffe738cc740797779e89800700a4d4141d8ab75eb4dca135978a30960808201526013600160ff1b0381608001516013600160ff1b030382602001510860a08201526013600160ff1b03816080015182602001510860c08201526013600160ff1b038082606001516013600160ff1b03036013600160ff1b03806124b257fe5b84604001516013600160ff1b03036013600160ff1b03806124cf57fe5b6013600160ff1b0360208a01518a51086013600160ff1b0360208c01518c51080908086013600160ff1b0360a08401518451090982526013600160ff1b038082604001518360600151086013600160ff1b0360c08401518451090960208301526013600160ff1b038160c001518260a001510960408301525092915050565b612556612da1565b61255e612e92565b6013600160ff1b03602084015184510881526013600160ff1b038151800960208201526013600160ff1b038351800960408201526013600160ff1b03602084015180096060820181905260408201516013600160ff1b03908103608084018190529091900860a08201526013600160ff1b036040840151800960e08201526013600160ff1b03808260e001516002096013600160ff1b03038260a001510860c08201526013600160ff1b0360c08201516013600160ff1b0383606001516013600160ff1b03036013600160ff1b038061263357fe5b85604001516013600160ff1b0303866020015108080982526013600160ff1b038082606001516013600160ff1b03038360800151088260a001510960208301526013600160ff1b038160c001518260a0015109604083015250919050565b60008060026013600160ff1b0303905060006013600160ff1b03905060405160208152602080820152602060408201528460608201528260808201528160a082015260208160c0836005600019fa6126e857600080fd5b51949350505050565b60006040518251602084019350604067ffffffffffffffc06001830116016009828203106001811461272257612729565b6040820191505b50776745230100efcdab890098badcfe001032547600c3d2e1f061277c565b600083831015612775575080820151928290039260208410156127755760001960208590036101000a0119165b9392505050565b60005b82811015612a9057612792848289612748565b85526127a2846020830189612748565b6020860152604081850310600181146127ba576127c3565b60808286038701535b50604083038114600181146127d7576127e5565b602086018051600887021790525b5060405b608081101561286d57858101603f19810151603719820151601f19830151600b198401516002911891909218189081027ffffffffefffffffefffffffefffffffefffffffefffffffefffffffefffffffe1663800000009091047c010000000100000001000000010000000100000001000000010000000116179052600c016127e9565b5060805b6101408110156128f657858101607f19810151606f19820151603f198301516017198401516004911891909218189081027ffffffffcfffffffcfffffffcfffffffcfffffffcfffffffcfffffffcfffffffc1663400000009091047c030000000300000003000000030000000300000003000000030000000316179052601801612871565b508160008060005b6050811015612a665760148104801561292e5760018114612955576002811461297a57600381146129a4576129c5565b600160281b8504600160501b86048118600160781b870416189350635a82799992506129c5565b600160281b8504600160781b8604600160501b870418189350636ed9eba192506129c5565b600160501b8504600160781b8604818117600160281b8804169116179350638f1bbcdc92506129c5565b600160281b8504600160781b8604600160501b87041818935063ca62c1d692505b50601f600160bb1b8504168063ffffffe06001609b1b87041617905080840190508063ffffffff8616019050808301905080600160e01b600484028c015104019050600160a01b8102600160281b8604179450600160501b633fffffff600160521b87041663c00000006604000000000000880416170277ffffffff00ffffffff000000000000ffffffff00ffffffff8616179450506001810190506128fe565b5050509190910177ffffffff00ffffffff00ffffffff00ffffffff00ffffffff169060400161277f565b50600160601b63ffffffff821667ffffffff000000006101008404166bffffffff0000000000000000620100008504166fffffffff000000000000000000000000630100000086041673ffffffff00000000000000000000000000000000600160201b8704161717171702945050505050919050565b60008251826014011115612b1957600080fd5b5001602001516001600160601b03191690565b6001600160a01b038116612b7457604051600160e51b62461bcd028152600401808060200182810382526026815260200180612ef26026913960400191505060405180910390fd5b600080546040516001600160a01b03808516939216917f8be0079c531659141344cd1fd0a4f28419497f9722a3daafe3b4186f6b6457e091a3600080546001600160a01b0319166001600160a01b0392909216919091179055565b612bd7612e78565b6020820615612bec5760208206602003820191505b506020828101829052604080518085526000815290920101905290565b612c11612e78565b61277583846000015151846020612c3d565b612c2b612e78565b61277583846000015151848551612ca7565b612c45612e78565b84602001518483011115612c6257612c6285858401600202612d53565b60006001836101000a0390508260200360080284901c93508551838682010185831982511617815281518588011115612c9b5784870182525b50959695505050505050565b612caf612e78565b8251821115612cbd57600080fd5b84602001518285011115612ce757612ce785612cdf8760200151878601612d70565b600202612d53565b600080865180518760208301019350808887011115612d065787860182525b505050602084015b60208410612d2d5780518252601f199093019260209182019101612d0e565b51815160001960208690036101000a019081169019919091161790525083949350505050565b8151612d5f8383612bcf565b50612d6a8382612c23565b50505050565b600081831115612d81575081611725565b50919050565b604051806040016040528060608152602001606081525090565b60405180606001604052806000815260200160008152602001600081525090565b60405180604001604052806002906020820280388339509192915050565b828054600181600116156101000203166002900490600052602060002090601f016020900481019282601f10612e2157805160ff1916838001178555612e4e565b82800160010185558215612e4e579182015b82811115612e4e578251825591602001919060010190612e33565b50612e5a929150612ed7565b5090565b604051806040016040528060008152602001600081525090565b604051806040016040528060608152602001600081525090565b60405180610100016040528060008152602001600081526020016000815260200160008152602001600081526020016000815260200160008152602001600081525090565b61166d91905b80821115612e5a5760008155600101612edd56fe4f776e61626c653a206e6577206f776e657220697320746865207a65726f2061646472657373ff3010ae5fe3144d9922cf3389b9bf30da6f991746f58a3177e3427ff9c7ef54546865206d73672e73656e64657220697320646966666572656e74207468616e20746865206f7261636c652061646472657373a165627a7a723058209cc8d2232b84281fc62ebf821f53f432c8bf80176830bc84ba24f36d8c9d57890029",
  "source": "pragma solidity >=0.4.21 <0.6.0;\n\n// import \"./algorithms/RSAVerify.sol\";\nimport \"./algorithms/BytesUtils.sol\";\nimport \"./algorithms/RSA.sol\";\nimport \"./algorithms/ED25519.sol\";\n\nimport \"openzeppelin-solidity/contracts/ownership/Ownable.sol\";\nimport \"@ensdomains/solsha1/contracts/SHA1.sol\";\n\ncontract DkimChecker is Ownable, RSA, ED25519 {\n\n\tusing BytesUtils for *;\n    \n    // ----------------------------------------------------------------------------------------------------//\n    // ----------------------------------------------------------------------------------------------------//\n    // ----------------------------------------------------------------------------------------------------//\n    // ----------------------------------------------------------------------------------------------------//\n    // ----------------------------------------------------------------------------------------------------//\n    // ----------------------------------------------------------------------------------------------------//\n    // ----------------------------------------------------------------------------------------------------//\n    // ----------------------------------------------------------------------------------------------------//\n\n    struct KeyRsa {\n        bytes exponent;\n        bytes modulus;\n    }\n\n    struct KeyEd {\n        uint x;\n        uint y;\n    }\n\n    address public oracle; \t// to be set equalt to the oracle contract address for access restrictions\n    mapping(bytes32 => mapping(bytes32 => KeyRsa)) public dkimKeysRsa;     // domain name => selector => key\n    mapping(bytes32 => mapping(bytes32 => KeyEd)) public dkimKeysEd;     // domain name => selector => bytes(key)\n    \n    // ----------------------------------------------------------------------------------------------------//\n    // ----------------------------------------------------------------------------------------------------//\n    // ----------------------------------------------------------------------------------------------------//\n    // ----------------------------------------------------------------------------------------------------//\n    // ----------------------------------------------------------------------------------------------------//\n    // ----------------------------------------------------------------------------------------------------//\n    // ----------------------------------------------------------------------------------------------------//\n    // ----------------------------------------------------------------------------------------------------//\n\n    constructor(address _oracle) public {\n\t\toracle =_oracle;\n\t}\n\n\t// Should be used with all function involving the oracle interaction, for access restrictions\n\tmodifier onlyOracle() {\n\t\tif(msg.sender != oracle) revert(\"The msg.sender is different than the oracle address\");\n\t\t_;\n\t}\n    \n    // ----------------------------------------------------------------------------------------------------//\n    // ----------------------------------------------------------------------------------------------------//\n    // ----------------------------------------------------------------------------------------------------//\n    // ----------------------------------------------------------------------------------------------------//\n    // ----------------------------------------------------------------------------------------------------//\n    // ----------------------------------------------------------------------------------------------------//\n    // ----------------------------------------------------------------------------------------------------//\n    // ----------------------------------------------------------------------------------------------------//\n\n\t// Dkim key setter function to be used bu\n    function setDkimKeyRsa(string memory _selector, string memory _domain, bytes memory _exponent, bytes memory _modulus) public onlyOracle returns(bool){\n        // Extra requirements can be added here to avoid issue with domainkey dns record update\n        KeyRsa storage key = dkimKeysRsa[keccak256(abi.encodePacked(_selector))][keccak256(abi.encodePacked(_domain))];\n        key.exponent = _exponent;\n        key.modulus = _modulus;\n        return true;\n    }\n\n    function setDkimKeyEd(string memory _selector, string memory _domain, uint x, uint y) public onlyOracle returns(bool){\n        // Extra requirements can be added here to avoid issue with domainkey dns record update\n        KeyEd storage key = dkimKeysEd[keccak256(abi.encodePacked(_selector))][keccak256(abi.encodePacked(_domain))] ;\n        key.x = x;\n        key.y = y;\n        return true;\n    }\n\n    function getDkimKeyRsa(string memory _selector, string memory _domain) public view returns (bytes memory,bytes memory) {\n        KeyRsa memory key = dkimKeysRsa[keccak256(abi.encodePacked(_selector))][keccak256(abi.encodePacked(_domain))];\n        return (key.exponent,key.modulus);\n    }\n\n    function getDkimKeyEd(string memory _selector, string memory _domain) public view returns (uint x, uint y) {\n        KeyEd memory key = dkimKeysEd[keccak256(abi.encodePacked(_selector))][keccak256(abi.encodePacked(_domain))];\n        return (key.x,key.y);\n    }\n    \n    // ----------------------------------------------------------------------------------------------------//\n    // ----------------------------------------------------------------------------------------------------//\n    // ----------------------------------------------------------------------------------------------------//\n    // ----------------------------------------------------------------------------------------------------//\n    // ----------------------------------------------------------------------------------------------------//\n    // ----------------------------------------------------------------------------------------------------//\n    // ----------------------------------------------------------------------------------------------------//\n    // ----------------------------------------------------------------------------------------------------//\n\n    event ReturnVal(bool);\n\n\tfunction checkBodySHA1(bytes memory body, bytes20 bodyHash) public returns (bool){\n\t\tbytes20 computed = SHA1.sha1(body);\n\n        emit ReturnVal(bodyHash == computed); // just added to simulate a non-view function\n        return true;\n\t}\n\t\n\tfunction checkBodySHA256(bytes memory body, bytes32 bodyHash) public returns (bool){\n\t\tbytes32 computed = sha256(body);\n\n        emit ReturnVal(bodyHash == computed); // just added to simulate a non-view function\n        return true;\n\t}\n\n    // ----------------------------------------------------------------------------------------------------//\n    // ----------------------------------------------------------------------------------------------------//\n    // ----------------------------------------------------------------------------------------------------//\n    // ----------------------------------------------------------------------------------------------------//\n    // ----------------------------------------------------------------------------------------------------//\n    // ----------------------------------------------------------------------------------------------------//\n    // ----------------------------------------------------------------------------------------------------//\n    // ----------------------------------------------------------------------------------------------------//\n\n    function verifyRSASHA256(string memory _selector, string memory _domain, bytes memory _sig, bytes32 _hash) public returns (bool) {\n        // Recover the message from the signature\n        KeyRsa memory key = dkimKeysRsa[keccak256(abi.encodePacked(_selector))][keccak256(abi.encodePacked(_domain))];\n\n        bool ok;\n        bytes memory result;\n        (ok, result) = modexp(_sig, key.exponent, key.modulus);\n        bool bl = ( ok &&  _hash == result.readBytes32(result.length - 32) );\n        \n        emit ReturnVal(bl); // just added to simulate a non-view function\n        return bl;\n    }\n\n    function verifyRSASHA1(string memory _selector, string memory _domain,bytes memory _sig, bytes20 _hash) public returns (bool) {\n\n        KeyRsa memory key = dkimKeysRsa[keccak256(abi.encodePacked(_selector))][keccak256(abi.encodePacked(_domain))];\n\n        bool ok;\n        bytes memory result;\n        (ok, result) = modexp(_sig, key.exponent, key.modulus);\n        bool bl = (ok &&  _hash == result.readBytes20(result.length - 20) );\n        \n        emit ReturnVal(bl); // just added to simulate a non-view function\n        return bl;\n    }\n\n    // https://tools.ietf.org/html/rfc8032#section-5.1\n\n\n    // \"_R\" and \"_s\" are the signature component.\n    // _hash is the sha512 \n    \n    function verifyED25519( string memory _selector, string memory _domain, uint[2] memory _R, uint[2] memory _lhs ,uint _hash)\n        public returns (bool)\n    {\n        KeyEd memory key = dkimKeysEd[keccak256(abi.encodePacked(_selector))][keccak256(abi.encodePacked(_domain))];\n        uint[2] memory rhs;\n\n        (rhs[0], rhs[1])  = scalarMult([key.x , key.y], _hash);\n        uint[2] memory Rs = ecAddVec(_R,rhs);\n\n        bool bl = (_lhs[0] == Rs[0] && _lhs[1] == Rs[1]);\n\n        emit ReturnVal(bl); // just added to simulate a non-view function\n        return bl;\n    }\n}",
  "sourcePath": "/home/faycal/Desktop/cloud/DKIM-AUTH/contracts/DkimChecker.sol",
  "compiler": {
    "name": "solc",
    "version": "0.5.8+commit.23d335f2.Emscripten.clang"
  },
  "schemaVersion": "3.0.16",
  "updatedAt": "2019-11-08T16:25:09.780Z",
  "devdoc": {
    "methods": {
      "isOwner()": {
        "details": "Returns true if the caller is the current owner."
      },
      "owner()": {
        "details": "Returns the address of the current owner."
      },
      "renounceOwnership()": {
        "details": "Leaves the contract without owner. It will not be possible to call `onlyOwner` functions anymore. Can only be called by the current owner.     * > Note: Renouncing ownership will leave the contract without an owner, thereby removing any functionality that is only available to the owner."
      },
      "transferOwnership(address)": {
        "details": "Transfers ownership of the contract to a new account (`newOwner`). Can only be called by the current owner."
      }
    }
  },
  "userdoc": {
    "methods": {}
  }
}