{
  "contractName": "DkimChecker",
  "abi": [
    {
      "constant": true,
      "inputs": [
        {
          "name": "point",
          "type": "uint256[2]"
        },
        {
          "name": "s",
          "type": "uint256"
        }
      ],
      "name": "scalarMult",
      "outputs": [
        {
          "name": "",
          "type": "uint256"
        },
        {
          "name": "",
          "type": "uint256"
        }
      ],
      "payable": false,
      "stateMutability": "view",
      "type": "function"
    },
    {
      "constant": false,
      "inputs": [],
      "name": "renounceOwnership",
      "outputs": [],
      "payable": false,
      "stateMutability": "nonpayable",
      "type": "function"
    },
    {
      "constant": true,
      "inputs": [],
      "name": "oracle",
      "outputs": [
        {
          "name": "",
          "type": "address"
        }
      ],
      "payable": false,
      "stateMutability": "view",
      "type": "function"
    },
    {
      "constant": true,
      "inputs": [],
      "name": "owner",
      "outputs": [
        {
          "name": "",
          "type": "address"
        }
      ],
      "payable": false,
      "stateMutability": "view",
      "type": "function"
    },
    {
      "constant": true,
      "inputs": [],
      "name": "isOwner",
      "outputs": [
        {
          "name": "",
          "type": "bool"
        }
      ],
      "payable": false,
      "stateMutability": "view",
      "type": "function"
    },
    {
      "constant": true,
      "inputs": [
        {
          "name": "_a",
          "type": "uint256[2]"
        },
        {
          "name": "_b",
          "type": "uint256[2]"
        }
      ],
      "name": "ecAddVec",
      "outputs": [
        {
          "name": "",
          "type": "uint256[2]"
        }
      ],
      "payable": false,
      "stateMutability": "view",
      "type": "function"
    },
    {
      "constant": true,
      "inputs": [
        {
          "name": "",
          "type": "bytes32"
        },
        {
          "name": "",
          "type": "bytes32"
        }
      ],
      "name": "dkimKeysEd",
      "outputs": [
        {
          "name": "x",
          "type": "uint256"
        },
        {
          "name": "y",
          "type": "uint256"
        }
      ],
      "payable": false,
      "stateMutability": "view",
      "type": "function"
    },
    {
      "constant": false,
      "inputs": [
        {
          "name": "newOwner",
          "type": "address"
        }
      ],
      "name": "transferOwnership",
      "outputs": [],
      "payable": false,
      "stateMutability": "nonpayable",
      "type": "function"
    },
    {
      "constant": true,
      "inputs": [
        {
          "name": "",
          "type": "bytes32"
        },
        {
          "name": "",
          "type": "bytes32"
        }
      ],
      "name": "dkimKeysRsa",
      "outputs": [
        {
          "name": "exponent",
          "type": "bytes"
        },
        {
          "name": "modulus",
          "type": "bytes"
        }
      ],
      "payable": false,
      "stateMutability": "view",
      "type": "function"
    },
    {
      "inputs": [
        {
          "name": "_oracle",
          "type": "address"
        }
      ],
      "payable": false,
      "stateMutability": "nonpayable",
      "type": "constructor"
    },
    {
      "anonymous": false,
      "inputs": [
        {
          "indexed": false,
          "name": "",
          "type": "bool"
        }
      ],
      "name": "ReturnVal",
      "type": "event"
    },
    {
      "anonymous": false,
      "inputs": [
        {
          "indexed": false,
          "name": "x",
          "type": "bytes32"
        }
      ],
      "name": "Debug",
      "type": "event"
    },
    {
      "anonymous": false,
      "inputs": [
        {
          "indexed": true,
          "name": "previousOwner",
          "type": "address"
        },
        {
          "indexed": true,
          "name": "newOwner",
          "type": "address"
        }
      ],
      "name": "OwnershipTransferred",
      "type": "event"
    },
    {
      "constant": false,
      "inputs": [
        {
          "name": "_selector",
          "type": "string"
        },
        {
          "name": "_domain",
          "type": "string"
        },
        {
          "name": "_exponent",
          "type": "bytes"
        },
        {
          "name": "_modulus",
          "type": "bytes"
        }
      ],
      "name": "setDkimKeyRsa",
      "outputs": [
        {
          "name": "",
          "type": "bool"
        }
      ],
      "payable": false,
      "stateMutability": "nonpayable",
      "type": "function"
    },
    {
      "constant": false,
      "inputs": [
        {
          "name": "_selector",
          "type": "string"
        },
        {
          "name": "_domain",
          "type": "string"
        },
        {
          "name": "x",
          "type": "uint256"
        },
        {
          "name": "y",
          "type": "uint256"
        }
      ],
      "name": "setDkimKeyEd",
      "outputs": [
        {
          "name": "",
          "type": "bool"
        }
      ],
      "payable": false,
      "stateMutability": "nonpayable",
      "type": "function"
    },
    {
      "constant": true,
      "inputs": [
        {
          "name": "_selector",
          "type": "string"
        },
        {
          "name": "_domain",
          "type": "string"
        }
      ],
      "name": "getDkimKeyRsa",
      "outputs": [
        {
          "name": "",
          "type": "bytes"
        },
        {
          "name": "",
          "type": "bytes"
        }
      ],
      "payable": false,
      "stateMutability": "view",
      "type": "function"
    },
    {
      "constant": true,
      "inputs": [
        {
          "name": "_selector",
          "type": "string"
        },
        {
          "name": "_domain",
          "type": "string"
        }
      ],
      "name": "getDkimKeyEd",
      "outputs": [
        {
          "name": "x",
          "type": "uint256"
        },
        {
          "name": "y",
          "type": "uint256"
        }
      ],
      "payable": false,
      "stateMutability": "view",
      "type": "function"
    },
    {
      "constant": false,
      "inputs": [
        {
          "name": "body",
          "type": "bytes"
        },
        {
          "name": "bodyHash",
          "type": "bytes20"
        }
      ],
      "name": "checkBodySHA1",
      "outputs": [
        {
          "name": "",
          "type": "bool"
        }
      ],
      "payable": false,
      "stateMutability": "nonpayable",
      "type": "function"
    },
    {
      "constant": false,
      "inputs": [
        {
          "name": "body",
          "type": "bytes"
        },
        {
          "name": "bodyHash",
          "type": "bytes32"
        }
      ],
      "name": "checkBodySHA256",
      "outputs": [
        {
          "name": "",
          "type": "bool"
        }
      ],
      "payable": false,
      "stateMutability": "nonpayable",
      "type": "function"
    },
    {
      "constant": false,
      "inputs": [
        {
          "name": "_selector",
          "type": "string"
        },
        {
          "name": "_domain",
          "type": "string"
        },
        {
          "name": "_sig",
          "type": "bytes"
        },
        {
          "name": "_canonicalizedHeader",
          "type": "bytes"
        }
      ],
      "name": "verifyRSASHA256",
      "outputs": [
        {
          "name": "",
          "type": "bool"
        }
      ],
      "payable": false,
      "stateMutability": "nonpayable",
      "type": "function"
    },
    {
      "constant": false,
      "inputs": [
        {
          "name": "_selector",
          "type": "string"
        },
        {
          "name": "_domain",
          "type": "string"
        },
        {
          "name": "_sig",
          "type": "bytes"
        },
        {
          "name": "_canonicalizedHeader",
          "type": "bytes"
        }
      ],
      "name": "verifyRSASHA1",
      "outputs": [
        {
          "name": "",
          "type": "bool"
        }
      ],
      "payable": false,
      "stateMutability": "nonpayable",
      "type": "function"
    },
    {
      "constant": false,
      "inputs": [
        {
          "name": "_selector",
          "type": "string"
        },
        {
          "name": "_domain",
          "type": "string"
        },
        {
          "name": "_R",
          "type": "uint256[2]"
        },
        {
          "name": "_lhs",
          "type": "uint256[2]"
        },
        {
          "name": "_hash",
          "type": "uint256"
        }
      ],
      "name": "verifyED25519",
      "outputs": [
        {
          "name": "",
          "type": "bool"
        }
      ],
      "payable": false,
      "stateMutability": "nonpayable",
      "type": "function"
    }
  ],
  "bytecode": "0x608060405234801561001057600080fd5b506040516020806131d28339810180604052602081101561003057600080fd5b5051600080546001600160a01b03191633178082556040516001600160a01b039190911691907f8be0079c531659141344cd1fd0a4f28419497f9722a3daafe3b4186f6b6457e0908290a3600180546001600160a01b0319166001600160a01b0392909216919091179055613128806100aa6000396000f3fe608060405234801561001057600080fd5b50600436106101165760003560e01c8063af0df022116100a2578063cb7034d211610071578063cb7034d214610e6e578063dbd1195c14610f1e578063e12e464c14610f41578063f2fde38b1461106f578063f3ae1b311461109557610116565b8063af0df022146108ef578063b217882514610a18578063c0fb8ba914610abe578063c82f10f514610c3b57610116565b80637dc0d1d0116100e95780637dc0d1d0146105d95780638da5cb5b146105fd5780638f32d59b146106055780639b0fd8cd1461060d578063a2226ef6146106bc57610116565b80633d69d2f71461011b578063500d8107146103625780635a6eb94e146103c8578063715018a6146105cf575b600080fd5b61034e6004803603608081101561013157600080fd5b810190602081018135600160201b81111561014b57600080fd5b82018360208201111561015d57600080fd5b803590602001918460018302840111600160201b8311171561017e57600080fd5b91908080601f0160208091040260200160405190810160405280939291908181526020018383808284376000920191909152509295949360208101935035915050600160201b8111156101d057600080fd5b8201836020820111156101e257600080fd5b803590602001918460018302840111600160201b8311171561020357600080fd5b91908080601f0160208091040260200160405190810160405280939291908181526020018383808284376000920191909152509295949360208101935035915050600160201b81111561025557600080fd5b82018360208201111561026757600080fd5b803590602001918460018302840111600160201b8311171561028857600080fd5b91908080601f0160208091040260200160405190810160405280939291908181526020018383808284376000920191909152509295949360208101935035915050600160201b8111156102da57600080fd5b8201836020820111156102ec57600080fd5b803590602001918460018302840111600160201b8311171561030d57600080fd5b91908080601f0160208091040260200160405190810160405280939291908181526020018383808284376000920191909152509295506110b8945050505050565b604080519115158252519081900360200190f35b6103af6004803603606081101561037857600080fd5b60408051808201825291830192918183019183906002908390839080828437600092019190915250919450509035915061140b9050565b6040805192835260208301919091528051918290030190f35b6104f1600480360360408110156103de57600080fd5b810190602081018135600160201b8111156103f857600080fd5b82018360208201111561040a57600080fd5b803590602001918460018302840111600160201b8311171561042b57600080fd5b91908080601f0160208091040260200160405190810160405280939291908181526020018383808284376000920191909152509295949360208101935035915050600160201b81111561047d57600080fd5b82018360208201111561048f57600080fd5b803590602001918460018302840111600160201b831117156104b057600080fd5b91908080601f0160208091040260200160405190810160405280939291908181526020018383808284376000920191909152509295506114c0945050505050565b604051808060200180602001838103835285818151815260200191508051906020019080838360005b8381101561053257818101518382015260200161051a565b50505050905090810190601f16801561055f5780820380516001836020036101000a031916815260200191505b50838103825284518152845160209182019186019080838360005b8381101561059257818101518382015260200161057a565b50505050905090810190601f1680156105bf5780820380516001836020036101000a031916815260200191505b5094505050505060405180910390f35b6105d761172e565b005b6105e16117d4565b604080516001600160a01b039092168252519081900360200190f35b6105e16117e3565b61034e6117f3565b6106816004803603608081101561062357600080fd5b6040805180820182529183019291818301918390600290839083908082843760009201919091525050604080518082018252929594938181019392509060029083908390808284376000920191909152509194506118049350505050565b6040518082600260200280838360005b838110156106a9578181015183820152602001610691565b5050505090500191505060405180910390f35b61034e600480360360808110156106d257600080fd5b810190602081018135600160201b8111156106ec57600080fd5b8201836020820111156106fe57600080fd5b803590602001918460018302840111600160201b8311171561071f57600080fd5b91908080601f0160208091040260200160405190810160405280939291908181526020018383808284376000920191909152509295949360208101935035915050600160201b81111561077157600080fd5b82018360208201111561078357600080fd5b803590602001918460018302840111600160201b831117156107a457600080fd5b91908080601f0160208091040260200160405190810160405280939291908181526020018383808284376000920191909152509295949360208101935035915050600160201b8111156107f657600080fd5b82018360208201111561080857600080fd5b803590602001918460018302840111600160201b8311171561082957600080fd5b91908080601f0160208091040260200160405190810160405280939291908181526020018383808284376000920191909152509295949360208101935035915050600160201b81111561087b57600080fd5b82018360208201111561088d57600080fd5b803590602001918460018302840111600160201b831117156108ae57600080fd5b91908080601f0160208091040260200160405190810160405280939291908181526020018383808284376000920191909152509295506118ae945050505050565b6103af6004803603604081101561090557600080fd5b810190602081018135600160201b81111561091f57600080fd5b82018360208201111561093157600080fd5b803590602001918460018302840111600160201b8311171561095257600080fd5b91908080601f0160208091040260200160405190810160405280939291908181526020018383808284376000920191909152509295949360208101935035915050600160201b8111156109a457600080fd5b8201836020820111156109b657600080fd5b803590602001918460018302840111600160201b831117156109d757600080fd5b91908080601f016020809104026020016040519081016040528093929190818152602001838380828437600092019190915250929550611a3a945050505050565b61034e60048036036040811015610a2e57600080fd5b810190602081018135600160201b811115610a4857600080fd5b820183602082011115610a5a57600080fd5b803590602001918460018302840111600160201b83111715610a7b57600080fd5b91908080601f0160208091040260200160405190810160405280939291908181526020018383808284376000920191909152509295505091359250611b68915050565b61034e600480360360e0811015610ad457600080fd5b810190602081018135600160201b811115610aee57600080fd5b820183602082011115610b0057600080fd5b803590602001918460018302840111600160201b83111715610b2157600080fd5b91908080601f0160208091040260200160405190810160405280939291908181526020018383808284376000920191909152509295949360208101935035915050600160201b811115610b7357600080fd5b820183602082011115610b8557600080fd5b803590602001918460018302840111600160201b83111715610ba657600080fd5b91908080601f01602080910402602001604051908101604052809392919081815260200183838082843760009201919091525050604080518082018252939695948181019493509150600290839083908082843760009201919091525050604080518082018252929594938181019392509060029083908390808284376000920191909152509194505090359150611c249050565b61034e60048036036080811015610c5157600080fd5b810190602081018135600160201b811115610c6b57600080fd5b820183602082011115610c7d57600080fd5b803590602001918460018302840111600160201b83111715610c9e57600080fd5b91908080601f0160208091040260200160405190810160405280939291908181526020018383808284376000920191909152509295949360208101935035915050600160201b811115610cf057600080fd5b820183602082011115610d0257600080fd5b803590602001918460018302840111600160201b83111715610d2357600080fd5b91908080601f0160208091040260200160405190810160405280939291908181526020018383808284376000920191909152509295949360208101935035915050600160201b811115610d7557600080fd5b820183602082011115610d8757600080fd5b803590602001918460018302840111600160201b83111715610da857600080fd5b91908080601f0160208091040260200160405190810160405280939291908181526020018383808284376000920191909152509295949360208101935035915050600160201b811115610dfa57600080fd5b820183602082011115610e0c57600080fd5b803590602001918460018302840111600160201b83111715610e2d57600080fd5b91908080601f016020809104026020016040519081016040528093929190818152602001838380828437600092019190915250929550611de6945050505050565b61034e60048036036040811015610e8457600080fd5b810190602081018135600160201b811115610e9e57600080fd5b820183602082011115610eb057600080fd5b803590602001918460018302840111600160201b83111715610ed157600080fd5b91908080601f016020809104026020016040519081016040528093929190818152602001838380828437600092019190915250929550505090356001600160601b03191691506120cd9050565b6103af60048036036040811015610f3457600080fd5b5080359060200135612117565b61034e60048036036080811015610f5757600080fd5b810190602081018135600160201b811115610f7157600080fd5b820183602082011115610f8357600080fd5b803590602001918460018302840111600160201b83111715610fa457600080fd5b91908080601f0160208091040260200160405190810160405280939291908181526020018383808284376000920191909152509295949360208101935035915050600160201b811115610ff657600080fd5b82018360208201111561100857600080fd5b803590602001918460018302840111600160201b8311171561102957600080fd5b91908080601f016020809104026020016040519081016040528093929190818152602001838380828437600092019190915250929550508235935050506020013561213b565b6105d76004803603602081101561108557600080fd5b50356001600160a01b031661229d565b6104f1600480360360408110156110ab57600080fd5b5080359060200135612305565b60006110c2612f19565b60026000876040516020018082805190602001908083835b602083106110f95780518252601f1990920191602091820191016110da565b6001836020036101000a0380198251168184511680821785525050505050509050019150506040516020818303038152906040528051906020012081526020019081526020016000206000866040516020018082805190602001908083835b602083106111775780518252601f199092019160209182019101611158565b6001836020036101000a038019825116818451168082178552505050505050905001915050604051602081830303815290604052805190602001208152602001908152602001600020604051806040016040529081600082018054600181600116156101000203166002900480601f0160208091040260200160405190810160405280929190818152602001828054600181600116156101000203166002900480156112645780601f1061123957610100808354040283529160200191611264565b820191906000526020600020905b81548152906001019060200180831161124757829003601f168201915b50505050508152602001600182018054600181600116156101000203166002900480601f0160208091040260200160405190810160405280929190818152602001828054600181600116156101000203166002900480156113065780601f106112db57610100808354040283529160200191611306565b820191906000526020600020905b8154815290600101906020018083116112e957829003601f168201915b5050505050815250509050600060606113288684600001518560200151612448565b909250905060008280156113d85750815161134e908390601f190163ffffffff61252e16565b6002876040518082805190602001908083835b602083106113805780518252601f199092019160209182019101611361565b51815160209384036101000a60001901801990921691161790526040519190930194509192505080830381855afa1580156113bf573d6000803e3d6000fd5b5050506040513d60208110156113d457600080fd5b5051145b60408051821515815290519192506000805160206130aa833981519152919081900360200190a198975050505050505050565b600080611416612f33565b61141e612f33565b85518252602080870151838201526001604080850182905260008452918301819052908201525b841561147b57846001166001141561146457611461818361254a565b90505b600185901c9450611474826126e0565b9150611445565b600061148a8260400151612823565b90506013600160ff1b03825182900982526013600160ff1b03818360200151096020830181905291519791965090945050505050565b6060806114cb612f19565b60026000866040516020018082805190602001908083835b602083106115025780518252601f1990920191602091820191016114e3565b6001836020036101000a0380198251168184511680821785525050505050509050019150506040516020818303038152906040528051906020012081526020019081526020016000206000856040516020018082805190602001908083835b602083106115805780518252601f199092019160209182019101611561565b6001836020036101000a038019825116818451168082178552505050505050905001915050604051602081830303815290604052805190602001208152602001908152602001600020604051806040016040529081600082018054600181600116156101000203166002900480601f01602080910402602001604051908101604052809291908181526020018280546001816001161561010002031660029004801561166d5780601f106116425761010080835404028352916020019161166d565b820191906000526020600020905b81548152906001019060200180831161165057829003601f168201915b50505050508152602001600182018054600181600116156101000203166002900480601f01602080910402602001604051908101604052809291908181526020018280546001816001161561010002031660029004801561170f5780601f106116e45761010080835404028352916020019161170f565b820191906000526020600020905b8154815290600101906020018083116116f257829003601f168201915b5050509190925250508151602090920151919791965090945050505050565b6117366117f3565b61178a5760408051600160e51b62461bcd02815260206004820181905260248201527f4f776e61626c653a2063616c6c6572206973206e6f7420746865206f776e6572604482015290519081900360640190fd5b600080546040516001600160a01b03909116907f8be0079c531659141344cd1fd0a4f28419497f9722a3daafe3b4186f6b6457e0908390a3600080546001600160a01b0319169055565b6001546001600160a01b031681565b6000546001600160a01b03165b90565b6000546001600160a01b0316331490565b61180c612f54565b611814612f33565b61181c612f33565b8451825260208086015183820152600160408085018290528651845286830151928401929092529082015261184f612f33565b611859838361254a565b9050600061186a8260400151612823565b905060405180604001604052806013600160ff1b038061188657fe5b845184900981526020016013600160ff1b038385602001510990529450505050505b92915050565b6001546000906001600160a01b031633146118fd57604051600160e51b62461bcd0281526004018080602001828103825260338152602001806130ca6033913960400191505060405180910390fd5b600060026000876040516020018082805190602001908083835b602083106119365780518252601f199092019160209182019101611917565b6001836020036101000a0380198251168184511680821785525050505050509050019150506040516020818303038152906040528051906020012081526020019081526020016000206000866040516020018082805190602001908083835b602083106119b45780518252601f199092019160209182019101611995565b6001836020036101000a038019825116818451168082178552505050505050905001915050604051602081830303815290604052805190602001208152602001908152602001600020905083816000019080519060200190611a17929190612f72565b508251611a2d9060018301906020860190612f72565b5060019695505050505050565b600080611a45612ff0565b60036000866040516020018082805190602001908083835b60208310611a7c5780518252601f199092019160209182019101611a5d565b6001836020036101000a0380198251168184511680821785525050505050509050019150506040516020818303038152906040528051906020012081526020019081526020016000206000856040516020018082805190602001908083835b60208310611afa5780518252601f199092019160209182019101611adb565b51815160209384036101000a60001901801990921691161790526040805192909401828103601f190183528452815191810191909120865285810196909652509283016000208351808501909452805480855260019091015493909401839052509197909650945050505050565b6000806002846040518082805190602001908083835b60208310611b9d5780518252601f199092019160209182019101611b7e565b51815160209384036101000a60001901801990921691161790526040519190930194509192505080830381855afa158015611bdc573d6000803e3d6000fd5b5050506040513d6020811015611bf157600080fd5b505160408051858314815290519192506000805160206130aa833981519152919081900360200190a15060019392505050565b6000611c2e612ff0565b60036000886040516020018082805190602001908083835b60208310611c655780518252601f199092019160209182019101611c46565b6001836020036101000a0380198251168184511680821785525050505050509050019150506040516020818303038152906040528051906020012081526020019081526020016000206000876040516020018082805190602001908083835b60208310611ce35780518252601f199092019160209182019101611cc4565b6001836020036101000a038019825116818451168082178552505050505050905001915050604051602081830303815290604052805190602001208152602001908152602001600020604051806040016040529081600082015481526020016001820154815250509050611d55612f54565b611d7b60405180604001604052808460000151815260200184602001518152508561140b565b60208301528152611d8a612f54565b611d948783611804565b80518751919250600091148015611db2575060208083015190880151145b60408051821515815290519192506000805160206130aa833981519152919081900360200190a19998505050505050505050565b6000611df0612f19565b60026000876040516020018082805190602001908083835b60208310611e275780518252601f199092019160209182019101611e08565b6001836020036101000a0380198251168184511680821785525050505050509050019150506040516020818303038152906040528051906020012081526020019081526020016000206000866040516020018082805190602001908083835b60208310611ea55780518252601f199092019160209182019101611e86565b6001836020036101000a038019825116818451168082178552505050505050905001915050604051602081830303815290604052805190602001208152602001908152602001600020604051806040016040529081600082018054600181600116156101000203166002900480601f016020809104026020016040519081016040528092919081815260200182805460018160011615610100020316600290048015611f925780601f10611f6757610100808354040283529160200191611f92565b820191906000526020600020905b815481529060010190602001808311611f7557829003601f168201915b50505050508152602001600182018054600181600116156101000203166002900480601f0160208091040260200160405190810160405280929190818152602001828054600181600116156101000203166002900480156120345780601f1061200957610100808354040283529160200191612034565b820191906000526020600020905b81548152906001019060200180831161201757829003601f168201915b5050505050815250509050600060606120568684600001518560200151612448565b909250905060008280156113d85750815161207c9083906013190163ffffffff61288316565b6001600160601b03191661208f876128a9565b6001600160601b0319161460408051821515815290519192506000805160206130aa833981519152919081900360200190a198975050505050505050565b6000806120d9846128a9565b604080516001600160601b031986811690841614815290519192506000805160206130aa833981519152919081900360200190a15060019392505050565b60036020908152600092835260408084209091529082529020805460019091015482565b6001546000906001600160a01b0316331461218a57604051600160e51b62461bcd0281526004018080602001828103825260338152602001806130ca6033913960400191505060405180910390fd5b600060036000876040516020018082805190602001908083835b602083106121c35780518252601f1990920191602091820191016121a4565b6001836020036101000a0380198251168184511680821785525050505050509050019150506040516020818303038152906040528051906020012081526020019081526020016000206000866040516020018082805190602001908083835b602083106122415780518252601f199092019160209182019101612222565b51815160209384036101000a60001901801990921691161790526040805192909401828103601f190183528452815191810191909120865285019590955292909201600020968755505050506001928301919091555092915050565b6122a56117f3565b6122f95760408051600160e51b62461bcd02815260206004820181905260248201527f4f776e61626c653a2063616c6c6572206973206e6f7420746865206f776e6572604482015290519081900360640190fd5b61230281612cbe565b50565b6002602081815260009384526040808520825292845292829020805483516001821615610100026000190190911692909204601f810185900485028301850190935282825292909183918301828280156123a05780601f10612375576101008083540402835291602001916123a0565b820191906000526020600020905b81548152906001019060200180831161238357829003601f168201915b505050505090806001018054600181600116156101000203166002900480601f01602080910402602001604051908101604052809291908181526020018280546001816001161561010002031660029004801561243e5780601f106124135761010080835404028352916020019161243e565b820191906000526020600020905b81548152906001019060200180831161242157829003601f168201915b5050505050905082565b6000606060008351855187516060010101905061246361300a565b612473818363ffffffff612d6116565b50865161248790829063ffffffff612d9b16565b50855161249b90829063ffffffff612d9b16565b5084516124af90829063ffffffff612d9b16565b506124c0818863ffffffff612db516565b506124d1818763ffffffff612db516565b506124e2818663ffffffff612db516565b5084516040519080825280601f01601f19166020018201604052801561250f576020820181803883390190505b50925084516020840183602084510160055afa93505050935093915050565b6000825182602001111561254157600080fd5b50016020015190565b612552612f33565b61255a613024565b6013600160ff1b03836040015185604001510981526013600160ff1b038151800960208201526013600160ff1b03835185510960408201526013600160ff1b03836020015185602001510960608201526013600160ff1b038082606001518360400151097f52036cee2b6ffe738cc740797779e89800700a4d4141d8ab75eb4dca135978a30960808201526013600160ff1b0381608001516013600160ff1b030382602001510860a08201526013600160ff1b03816080015182602001510860c08201526013600160ff1b038082606001516013600160ff1b03036013600160ff1b038061264457fe5b84604001516013600160ff1b03036013600160ff1b038061266157fe5b6013600160ff1b0360208a01518a51086013600160ff1b0360208c01518c51080908086013600160ff1b0360a08401518451090982526013600160ff1b038082604001518360600151086013600160ff1b0360c08401518451090960208301526013600160ff1b038160c001518260a001510960408301525092915050565b6126e8612f33565b6126f0613024565b6013600160ff1b03602084015184510881526013600160ff1b038151800960208201526013600160ff1b038351800960408201526013600160ff1b03602084015180096060820181905260408201516013600160ff1b03908103608084018190529091900860a08201526013600160ff1b036040840151800960e08201526013600160ff1b03808260e001516002096013600160ff1b03038260a001510860c08201526013600160ff1b0360c08201516013600160ff1b0383606001516013600160ff1b03036013600160ff1b03806127c557fe5b85604001516013600160ff1b0303866020015108080982526013600160ff1b038082606001516013600160ff1b03038360800151088260a001510960208301526013600160ff1b038160c001518260a0015109604083015250919050565b60008060026013600160ff1b0303905060006013600160ff1b03905060405160208152602080820152602060408201528460608201528260808201528160a082015260208160c0836005600019fa61287a57600080fd5b51949350505050565b6000825182601401111561289657600080fd5b5001602001516001600160601b03191690565b60006040518251602084019350604067ffffffffffffffc0600183011601600982820310600181146128da576128e1565b6040820191505b50776745230100efcdab890098badcfe001032547600c3d2e1f0612934565b60008383101561292d5750808201519282900392602084101561292d5760001960208590036101000a0119165b9392505050565b60005b82811015612c485761294a848289612900565b855261295a846020830189612900565b6020860152604081850310600181146129725761297b565b60808286038701535b506040830381146001811461298f5761299d565b602086018051600887021790525b5060405b6080811015612a2557858101603f19810151603719820151601f19830151600b198401516002911891909218189081027ffffffffefffffffefffffffefffffffefffffffefffffffefffffffefffffffe1663800000009091047c010000000100000001000000010000000100000001000000010000000116179052600c016129a1565b5060805b610140811015612aae57858101607f19810151606f19820151603f198301516017198401516004911891909218189081027ffffffffcfffffffcfffffffcfffffffcfffffffcfffffffcfffffffcfffffffc1663400000009091047c030000000300000003000000030000000300000003000000030000000316179052601801612a29565b508160008060005b6050811015612c1e57601481048015612ae65760018114612b0d5760028114612b325760038114612b5c57612b7d565b600160281b8504600160501b86048118600160781b870416189350635a8279999250612b7d565b600160281b8504600160781b8604600160501b870418189350636ed9eba19250612b7d565b600160501b8504600160781b8604818117600160281b8804169116179350638f1bbcdc9250612b7d565b600160281b8504600160781b8604600160501b87041818935063ca62c1d692505b50601f600160bb1b8504168063ffffffe06001609b1b87041617905080840190508063ffffffff8616019050808301905080600160e01b600484028c015104019050600160a01b8102600160281b8604179450600160501b633fffffff600160521b87041663c00000006604000000000000880416170277ffffffff00ffffffff000000000000ffffffff00ffffffff861617945050600181019050612ab6565b5050509190910177ffffffff00ffffffff00ffffffff00ffffffff00ffffffff1690604001612937565b50600160601b63ffffffff821667ffffffff000000006101008404166bffffffff0000000000000000620100008504166fffffffff000000000000000000000000630100000086041673ffffffff00000000000000000000000000000000600160201b8704161717171702945050505050919050565b6001600160a01b038116612d0657604051600160e51b62461bcd0281526004018080602001828103825260268152602001806130846026913960400191505060405180910390fd5b600080546040516001600160a01b03808516939216917f8be0079c531659141344cd1fd0a4f28419497f9722a3daafe3b4186f6b6457e091a3600080546001600160a01b0319166001600160a01b0392909216919091179055565b612d6961300a565b6020820615612d7e5760208206602003820191505b506020828101829052604080518085526000815290920101905290565b612da361300a565b61292d83846000015151846020612dcf565b612dbd61300a565b61292d83846000015151848551612e39565b612dd761300a565b84602001518483011115612df457612df485858401600202612ee5565b60006001836101000a0390508260200360080284901c93508551838682010185831982511617815281518588011115612e2d5784870182525b50959695505050505050565b612e4161300a565b8251821115612e4f57600080fd5b84602001518285011115612e7957612e7985612e718760200151878601612f02565b600202612ee5565b600080865180518760208301019350808887011115612e985787860182525b505050602084015b60208410612ebf5780518252601f199093019260209182019101612ea0565b51815160001960208690036101000a019081169019919091161790525083949350505050565b8151612ef18383612d61565b50612efc8382612db5565b50505050565b600081831115612f135750816118a8565b50919050565b604051806040016040528060608152602001606081525090565b60405180606001604052806000815260200160008152602001600081525090565b60405180604001604052806002906020820280388339509192915050565b828054600181600116156101000203166002900490600052602060002090601f016020900481019282601f10612fb357805160ff1916838001178555612fe0565b82800160010185558215612fe0579182015b82811115612fe0578251825591602001919060010190612fc5565b50612fec929150613069565b5090565b604051806040016040528060008152602001600081525090565b604051806040016040528060608152602001600081525090565b60405180610100016040528060008152602001600081526020016000815260200160008152602001600081526020016000815260200160008152602001600081525090565b6117f091905b80821115612fec576000815560010161306f56fe4f776e61626c653a206e6577206f776e657220697320746865207a65726f2061646472657373ff3010ae5fe3144d9922cf3389b9bf30da6f991746f58a3177e3427ff9c7ef54546865206d73672e73656e64657220697320646966666572656e74207468616e20746865206f7261636c652061646472657373a165627a7a72305820f2b9b8f4bde38e5a9b8cd95432ec1d0b190381c778216348a2e6eff7c87d4ec80029",
  "source": "pragma solidity >=0.4.21 <0.6.0;\n\n// import \"./algorithms/RSAVerify.sol\";\nimport \"./algorithms/BytesUtils.sol\";\nimport \"./algorithms/RSA.sol\";\nimport \"./algorithms/ED25519.sol\";\nimport \"./algorithms/SHA1.sol\";\n\nimport \"openzeppelin-solidity/contracts/ownership/Ownable.sol\";\n\ncontract DkimChecker is Ownable, RSA, ED25519, SHA1 {\n\n\tusing BytesUtils for *;\n    \n    // ----------------------------------------------------------------------------------------------------//\n    // ----------------------------------------------------------------------------------------------------//\n    // ----------------------------------------------------------------------------------------------------//\n    // ----------------------------------------------------------------------------------------------------//\n    // ----------------------------------------------------------------------------------------------------//\n    // ----------------------------------------------------------------------------------------------------//\n    // ----------------------------------------------------------------------------------------------------//\n    // ----------------------------------------------------------------------------------------------------//\n\n    struct KeyRsa {\n        bytes exponent;\n        bytes modulus;\n    }\n\n    struct KeyEd {\n        uint x;\n        uint y;\n    }\n\n    address public oracle; \t// to be set equalt to the oracle contract address for access restrictions\n    mapping(bytes32 => mapping(bytes32 => KeyRsa)) public dkimKeysRsa;     // domain name => selector => key\n    mapping(bytes32 => mapping(bytes32 => KeyEd)) public dkimKeysEd;     // domain name => selector => bytes(key)\n    \n    // ----------------------------------------------------------------------------------------------------//\n    // ----------------------------------------------------------------------------------------------------//\n    // ----------------------------------------------------------------------------------------------------//\n    // ----------------------------------------------------------------------------------------------------//\n    // ----------------------------------------------------------------------------------------------------//\n    // ----------------------------------------------------------------------------------------------------//\n    // ----------------------------------------------------------------------------------------------------//\n    // ----------------------------------------------------------------------------------------------------//\n\n    constructor(address _oracle) public {\n\t\toracle =_oracle;\n\t}\n\n\t// Should be used with all function involving the oracle interaction, for access restrictions\n\tmodifier onlyOracle() {\n\t\tif(msg.sender != oracle) revert(\"The msg.sender is different than the oracle address\");\n\t\t_;\n\t}\n    \n    // ----------------------------------------------------------------------------------------------------//\n    // ----------------------------------------------------------------------------------------------------//\n    // ----------------------------------------------------------------------------------------------------//\n    // ----------------------------------------------------------------------------------------------------//\n    // ----------------------------------------------------------------------------------------------------//\n    // ----------------------------------------------------------------------------------------------------//\n    // ----------------------------------------------------------------------------------------------------//\n    // ----------------------------------------------------------------------------------------------------//\n\n\t// Dkim key setter function to be used bu\n    function setDkimKeyRsa(string memory _selector, string memory _domain, bytes memory _exponent, bytes memory _modulus) public onlyOracle returns(bool){\n        // Extra requirements can be added here to avoid issue with domainkey dns record update\n        KeyRsa storage key = dkimKeysRsa[keccak256(abi.encodePacked(_selector))][keccak256(abi.encodePacked(_domain))];\n        key.exponent = _exponent;\n        key.modulus = _modulus;\n        return true;\n    }\n\n    function setDkimKeyEd(string memory _selector, string memory _domain, uint x, uint y) public onlyOracle returns(bool){\n        // Extra requirements can be added here to avoid issue with domainkey dns record update\n        KeyEd storage key = dkimKeysEd[keccak256(abi.encodePacked(_selector))][keccak256(abi.encodePacked(_domain))] ;\n        key.x = x;\n        key.y = y;\n        return true;\n    }\n\n    function getDkimKeyRsa(string memory _selector, string memory _domain) public view returns (bytes memory,bytes memory) {\n        KeyRsa memory key = dkimKeysRsa[keccak256(abi.encodePacked(_selector))][keccak256(abi.encodePacked(_domain))];\n        return (key.exponent,key.modulus);\n    }\n\n    function getDkimKeyEd(string memory _selector, string memory _domain) public view returns (uint x, uint y) {\n        KeyEd memory key = dkimKeysEd[keccak256(abi.encodePacked(_selector))][keccak256(abi.encodePacked(_domain))];\n        return (key.x,key.y);\n    }\n    \n    // ----------------------------------------------------------------------------------------------------//\n    // ----------------------------------------------------------------------------------------------------//\n    // ----------------------------------------------------------------------------------------------------//\n    // ----------------------------------------------------------------------------------------------------//\n    // ----------------------------------------------------------------------------------------------------//\n    // ----------------------------------------------------------------------------------------------------//\n    // ----------------------------------------------------------------------------------------------------//\n    // ----------------------------------------------------------------------------------------------------//\n\n    event ReturnVal(bool);\n\n\tfunction checkBodySHA1(bytes memory body, bytes20 bodyHash) public returns (bool){\n\t\tbytes20 computed = sha1(body);\n\n        emit ReturnVal(bodyHash == computed); // just added to simulate a non-view function\n        return true;\n\t}\n\t\n\tfunction checkBodySHA256(bytes memory body, bytes32 bodyHash) public returns (bool){\n\t\tbytes32 computed = sha256(body);\n\n        emit ReturnVal(bodyHash == computed); // just added to simulate a non-view function\n        return true;\n\t}\n\n    // ----------------------------------------------------------------------------------------------------//\n    // ----------------------------------------------------------------------------------------------------//\n    // ----------------------------------------------------------------------------------------------------//\n    // ----------------------------------------------------------------------------------------------------//\n    // ----------------------------------------------------------------------------------------------------//\n    // ----------------------------------------------------------------------------------------------------//\n    // ----------------------------------------------------------------------------------------------------//\n    // ----------------------------------------------------------------------------------------------------//\n\n    function verifyRSASHA256(string memory _selector, string memory _domain, bytes memory _sig, bytes memory _canonicalizedHeader) public returns (bool) {\n        // Recover the message from the signature\n        KeyRsa memory key = dkimKeysRsa[keccak256(abi.encodePacked(_selector))][keccak256(abi.encodePacked(_domain))];\n\n        bool ok;\n        bytes memory result;\n        (ok, result) = modexp(_sig, key.exponent, key.modulus);\n        bool bl = ( ok &&  sha256(_canonicalizedHeader) == result.readBytes32(result.length - 32) );\n        \n        emit ReturnVal(bl); // just added to simulate a non-view function\n        return bl;\n    }\n\n    function verifyRSASHA1(string memory _selector, string memory _domain,bytes memory _sig,  bytes memory _canonicalizedHeader) public returns (bool) {\n\n        KeyRsa memory key = dkimKeysRsa[keccak256(abi.encodePacked(_selector))][keccak256(abi.encodePacked(_domain))];\n\n        bool ok;\n        bytes memory result;\n        (ok, result) = modexp(_sig, key.exponent, key.modulus);\n        bool bl = (ok &&  sha1(_canonicalizedHeader) == result.readBytes20(result.length - 20) );\n        \n        emit ReturnVal(bl); // just added to simulate a non-view function\n        return bl;\n    }\n\n    // For more details abt ed25519 verification function check https://tools.ietf.org/html/rfc8032#section-5.1\n    // \"_R\" and \"_s\" are the signature component.\n    // _hash is the sha512 of abi.encodePacked(r,p,sha256(_canonicalizedHeader))\n    \n    function verifyED25519( string memory _selector, string memory _domain, uint[2] memory _R, uint[2] memory _lhs ,uint _hash)\n        public returns (bool)\n    {\n        KeyEd memory key = dkimKeysEd[keccak256(abi.encodePacked(_selector))][keccak256(abi.encodePacked(_domain))];\n        uint[2] memory rhs;\n\n        (rhs[0], rhs[1])  = scalarMult([key.x , key.y], _hash);\n        uint[2] memory Rs = ecAddVec(_R,rhs);\n\n        bool bl = (_lhs[0] == Rs[0] && _lhs[1] == Rs[1]);\n\n        emit ReturnVal(bl); // just added to simulate a non-view function\n        return bl;\n    }\n}",
  "sourcePath": "/home/faycal/Desktop/cloud/DKIM-AUTH/contracts/DkimChecker.sol",
  "compiler": {
    "name": "solc",
    "version": "0.5.8+commit.23d335f2.Emscripten.clang"
  },
  "schemaVersion": "3.0.16",
  "updatedAt": "2019-11-09T05:38:43.324Z",
  "devdoc": {
    "methods": {
      "isOwner()": {
        "details": "Returns true if the caller is the current owner."
      },
      "owner()": {
        "details": "Returns the address of the current owner."
      },
      "renounceOwnership()": {
        "details": "Leaves the contract without owner. It will not be possible to call `onlyOwner` functions anymore. Can only be called by the current owner.     * > Note: Renouncing ownership will leave the contract without an owner, thereby removing any functionality that is only available to the owner."
      },
      "transferOwnership(address)": {
        "details": "Transfers ownership of the contract to a new account (`newOwner`). Can only be called by the current owner."
      }
    }
  },
  "userdoc": {
    "methods": {}
  }
}