{
  "contractName": "Ed25519",
  "abi": [
    {
      "constant": true,
      "inputs": [
        {
          "name": "s",
          "type": "uint256"
        }
      ],
      "name": "scalarMultBase",
      "outputs": [
        {
          "name": "",
          "type": "uint256"
        },
        {
          "name": "",
          "type": "uint256"
        }
      ],
      "payable": false,
      "stateMutability": "view",
      "type": "function"
    },
    {
      "constant": true,
      "inputs": [
        {
          "name": "point",
          "type": "uint256[2]"
        },
        {
          "name": "s",
          "type": "uint256"
        }
      ],
      "name": "scalarMult",
      "outputs": [
        {
          "name": "",
          "type": "uint256"
        },
        {
          "name": "",
          "type": "uint256"
        }
      ],
      "payable": false,
      "stateMutability": "view",
      "type": "function"
    }
  ],
  "bytecode": "0x608060405234801561001057600080fd5b50610631806100206000396000f3fe608060405234801561001057600080fd5b50600436106100365760003560e01c8063500d81071461003b578063c4f4912b146100a1575b600080fd5b6100886004803603606081101561005157600080fd5b6040805180820182529183019291818301918390600290839083908082843760009201919091525091945050903591506100be9050565b6040805192835260208301919091528051918290030190f35b610088600480360360208110156100b757600080fd5b5035610173565b6000806100c961059f565b6100d161059f565b85518252602080870151838201526001604080850182905260008452918301819052908201525b841561012e578460011660011415610117576101148183610266565b90505b600185901c9450610127826103fc565b91506100f8565b600061013d826040015161053f565b90506013600160ff1b03825182900982526013600160ff1b03818360200151096020830181905291519791965090945050505050565b60008061017e61059f565b61018661059f565b7f216936d3cd6e53fec0a4e231fdd6dc5c692cc7609525a7b2c9562d608f25d51a82527f66666666666666666666666666666666666666666666666666666666666666586020808401919091526001604080850182905260008452918301819052908201525b841561022257846001166001141561020b576102088183610266565b90505b600185901c945061021b826103fc565b91506101ec565b6000610231826040015161053f565b90506013600160ff1b03825182900982526013600160ff1b038183602001510960208301819052915194509092505050915091565b61026e61059f565b6102766105c0565b6013600160ff1b03836040015185604001510981526013600160ff1b038151800960208201526013600160ff1b03835185510960408201526013600160ff1b03836020015185602001510960608201526013600160ff1b038082606001518360400151097f52036cee2b6ffe738cc740797779e89800700a4d4141d8ab75eb4dca135978a30960808201526013600160ff1b0381608001516013600160ff1b030382602001510860a08201526013600160ff1b03816080015182602001510860c08201526013600160ff1b038082606001516013600160ff1b03036013600160ff1b038061036057fe5b84604001516013600160ff1b03036013600160ff1b038061037d57fe5b6013600160ff1b0360208a01518a51086013600160ff1b0360208c01518c51080908086013600160ff1b0360a08401518451090982526013600160ff1b038082604001518360600151086013600160ff1b0360c08401518451090960208301526013600160ff1b038160c001518260a001510960408301525092915050565b61040461059f565b61040c6105c0565b6013600160ff1b03602084015184510881526013600160ff1b038151800960208201526013600160ff1b038351800960408201526013600160ff1b03602084015180096060820181905260408201516013600160ff1b03908103608084018190529091900860a08201526013600160ff1b036040840151800960e08201526013600160ff1b03808260e001516002096013600160ff1b03038260a001510860c08201526013600160ff1b0360c08201516013600160ff1b0383606001516013600160ff1b03036013600160ff1b03806104e157fe5b85604001516013600160ff1b0303866020015108080982526013600160ff1b038082606001516013600160ff1b03038360800151088260a001510960208301526013600160ff1b038160c001518260a0015109604083015250919050565b60008060026013600160ff1b0303905060006013600160ff1b03905060405160208152602080820152602060408201528460608201528260808201528160a082015260208160c0836005600019fa61059657600080fd5b51949350505050565b60405180606001604052806000815260200160008152602001600081525090565b6040518061010001604052806000815260200160008152602001600081526020016000815260200160008152602001600081526020016000815260200160008152509056fea165627a7a72305820b4a389e471a8a2324457392701922f224690614ba6439dd437e719a97646b0ce0029",
  "source": "pragma solidity ^0.5.0;\n\n// Using formulas from https://hyperelliptic.org/EFD/g1p/auto-twisted-projective.html\n// and constants from https://tools.ietf.org/html/draft-josefsson-eddsa-ed25519-03\n\ncontract Ed25519 {\n    uint constant q = 2 ** 255 - 19;\n    uint constant d = 37095705934669439343138083508754565189542113879843219016388785533085940283555;\n                      // = -(121665/121666)\n    uint constant Bx = 15112221349535400772501151409588531511454012693041857206046113283949847762202;\n    uint constant By = 46316835694926478169428394003475163141307993866256225615783033603165251855960;\n\n    struct Point {\n        uint x;\n        uint y;\n        uint z;\n    }\n\n    struct Scratchpad {\n        uint a;\n        uint b;\n        uint c;\n        uint d;\n        uint e;\n        uint f;\n        uint g;\n        uint h;\n    }\n\n    function inv(uint a) internal view returns (uint invA) {\n        uint e = q - 2;\n        uint m = q;\n\n        // use bigModExp precompile\n        assembly {\n            let p := mload(0x40)\n            mstore(p, 0x20)\n            mstore(add(p, 0x20), 0x20)\n            mstore(add(p, 0x40), 0x20)\n            mstore(add(p, 0x60), a)\n            mstore(add(p, 0x80), e)\n            mstore(add(p, 0xa0), m)\n            if iszero(staticcall(not(0), 0x05, p, 0xc0, p, 0x20)) {\n                revert(0, 0)\n            }\n            invA := mload(p)\n        }\n    }\n\n    function ecAdd(Point memory p1,\n                   Point memory p2) internal pure returns (Point memory p3) {\n        Scratchpad memory tmp;\n\n        tmp.a = mulmod(p1.z, p2.z, q);\n        tmp.b = mulmod(tmp.a, tmp.a, q);\n        tmp.c = mulmod(p1.x, p2.x, q);\n        tmp.d = mulmod(p1.y, p2.y, q);\n        tmp.e = mulmod(d, mulmod(tmp.c, tmp.d, q), q);\n        tmp.f = addmod(tmp.b, q - tmp.e, q);\n        tmp.g = addmod(tmp.b, tmp.e, q);\n        p3.x = mulmod(mulmod(tmp.a, tmp.f, q),\n                      addmod(addmod(mulmod(addmod(p1.x, p1.y, q),\n                                           addmod(p2.x, p2.y, q), q),\n                                    q - tmp.c, q), q - tmp.d, q), q);\n        p3.y = mulmod(mulmod(tmp.a, tmp.g, q),\n                      addmod(tmp.d, tmp.c, q), q);\n        p3.z = mulmod(tmp.f, tmp.g, q);\n    }\n\n    function ecAddVec(uint[2] memory _a,uint[2] memory _b) internal pure returns (uint[2] memory) {\n\n        Point memory a;\n        Point memory b;\n        a.x = _a[0];\n        a.y = _a[1];\n        a.z = 1;        \n\n        b.x = _b[0];\n        b.y = _b[1];\n        b.z = 1;\n\n        Point memory c = ecAdd(a,b);\n        return [c.x,c.y];\n    }\n\n    function ecDouble(Point memory p1) internal pure returns (Point memory p2) {\n        Scratchpad memory tmp;\n\n        tmp.a = addmod(p1.x, p1.y, q);\n        tmp.b = mulmod(tmp.a, tmp.a, q);\n        tmp.c = mulmod(p1.x, p1.x, q);\n        tmp.d = mulmod(p1.y, p1.y, q);\n        tmp.e = q - tmp.c;\n        tmp.f = addmod(tmp.e, tmp.d, q);\n        tmp.h = mulmod(p1.z, p1.z, q);\n        tmp.g = addmod(tmp.f, q - mulmod(2, tmp.h, q), q);\n        p2.x = mulmod(addmod(addmod(tmp.b, q - tmp.c, q), q - tmp.d, q),\n                      tmp.g, q);\n        p2.y = mulmod(tmp.f, addmod(tmp.e, q - tmp.d, q), q);\n        p2.z = mulmod(tmp.f, tmp.g, q);\n    }\n\n    function scalarMultBase(uint s) public view returns (uint, uint) {\n        Point memory b;\n        Point memory result;\n        b.x = Bx;\n        b.y = By;\n        b.z = 1;\n        result.x = 0;\n        result.y = 1;\n        result.z = 1;\n\n        while (s > 0) {\n            if (s & 1 == 1) { result = ecAdd(result, b); }\n            s = s >> 1;\n            b = ecDouble(b);\n        }\n\n        uint invZ = inv(result.z);\n        result.x = mulmod(result.x, invZ, q);\n        result.y = mulmod(result.y, invZ, q);\n\n        return (result.x, result.y);\n    }\n\n    function scalarMult(uint256[2] memory point ,uint s) public view returns (uint, uint) {\n        Point memory b;\n        Point memory result;\n        b.x = point[0];\n        b.y = point[1];\n        b.z = 1;\n        result.x = 0;\n        result.y = 1;\n        result.z = 1;\n\n        while (s > 0) {\n            if (s & 1 == 1) { result = ecAdd(result, b); }\n            s = s >> 1;\n            b = ecDouble(b);\n        }\n\n        uint invZ = inv(result.z);\n        result.x = mulmod(result.x, invZ, q);\n        result.y = mulmod(result.y, invZ, q);\n\n        return (result.x, result.y);\n    }\n}\n",
  "sourcePath": "/home/faycal/Desktop/cloud/DKIM-AUTH/contracts/algorithms/Ed25519.sol",
  "compiler": {
    "name": "solc",
    "version": "0.5.8+commit.23d335f2.Emscripten.clang"
  },
  "schemaVersion": "3.0.16",
  "updatedAt": "2019-11-07T04:52:14.494Z",
  "devdoc": {
    "methods": {}
  },
  "userdoc": {
    "methods": {}
  }
}