{
  "contractName": "RSASHA256Algorithm",
  "abi": [
    {
      "constant": true,
      "inputs": [
        {
          "name": "key",
          "type": "bytes"
        },
        {
          "name": "data",
          "type": "bytes"
        },
        {
          "name": "sig",
          "type": "bytes"
        }
      ],
      "name": "verify",
      "outputs": [
        {
          "name": "",
          "type": "bool"
        }
      ],
      "payable": false,
      "stateMutability": "view",
      "type": "function"
    }
  ],
  "bytecode": "0x608060405234801561001057600080fd5b5061094d806100206000396000f3fe608060405234801561001057600080fd5b506004361061002b5760003560e01c8063de8f50a114610030575b600080fd5b6101516004803603606081101561004657600080fd5b810190808035906020019064010000000081111561006357600080fd5b82018360208201111561007557600080fd5b8035906020019184600183028401116401000000008311171561009757600080fd5b9091929391929390803590602001906401000000008111156100b857600080fd5b8201836020820111156100ca57600080fd5b803590602001918460018302840111640100000000831117156100ec57600080fd5b90919293919293908035906020019064010000000081111561010d57600080fd5b82018360208201111561011f57600080fd5b8035906020019184600183028401116401000000008311171561014157600080fd5b909192939192939050505061016b565b604051808215151515815260200191505060405180910390f35b600060608060006101ca60048b8b8080601f016020809104026020016040519081016040528093929190818152602001838380828437600081840152601f19601f820116905080830192505050505050506104c090919063ffffffff16565b60ff16905060008161ffff16146102ae5761023960058261ffff168c8c8080601f016020809104026020016040519081016040528093929190818152602001838380828437600081840152601f19601f820116905080830192505050505050506104e49092919063ffffffff16565b92506102a76005820161ffff1660058361ffff168d8d905003038c8c8080601f016020809104026020016040519081016040528093929190818152602001838380828437600081840152601f19601f820116905080830192505050505050506104e49092919063ffffffff16565b91506103d7565b61030660058b8b8080601f016020809104026020016040519081016040528093929190818152602001838380828437600081840152601f19601f8201169050808301925050505050505061055790919063ffffffff16565b905061036660078261ffff168c8c8080601f016020809104026020016040519081016040528093929190818152602001838380828437600081840152601f19601f820116905080830192505050505050506104e49092919063ffffffff16565b92506103d46007820161ffff1660078361ffff168d8d905003038c8c8080601f016020809104026020016040519081016040528093929190818152602001838380828437600081840152601f19601f820116905080830192505050505050506104e49092919063ffffffff16565b91505b6000606061042a84868a8a8080601f016020809104026020016040519081016040528093929190818152602001838380828437600081840152601f19601f8201169050808301925050505050505061057d565b80925081935050508180156104af575061045160208251038261059890919063ffffffff16565b60028b8b604051808383808284378083019250505092505050602060405180830381855afa158015610487573d6000803e3d6000fd5b5050506040513d602081101561049c57600080fd5b8101908080519060200190929190505050145b955050505050509695505050505050565b60008282815181106104ce57fe5b602001015160f81c60f81b60f81c905092915050565b6060835182840111156104f657600080fd5b6060826040519080825280601f01601f19166020018201604052801561052b5781602001600182028038833980820191505090505b509050600080602083019150856020880101905061054a8282876105ba565b8293505050509392505050565b6000825160028301111561056a57600080fd5b61ffff8260028501015116905092915050565b6000606061058c838587610603565b91509150935093915050565b600082516020830111156105ab57600080fd5b81602084010151905092915050565b5b602081106105de57815183526020830192506020820191506020810390506105bb565b60006001826020036101000a0390508019835116818551168181178652505050505050565b6000606060008351855187516060010101905061061e610907565b610631828261070990919063ffffffff16565b50610649875160001b8261075d90919063ffffffff16565b50610661865160001b8261075d90919063ffffffff16565b50610679855160001b8261075d90919063ffffffff16565b5061068d878261077f90919063ffffffff16565b506106a1868261077f90919063ffffffff16565b506106b5858261077f90919063ffffffff16565b5084516040519080825280601f01601f1916602001820160405280156106ea5781602001600182028038833980820191505090505b50925084516020840183602084510160055afa93505050935093915050565b610711610907565b60006020838161071d57fe5b0614610736576020828161072d57fe5b06602003820191505b81836020018181525050604051808452600081528281016020016040525082905092915050565b610765610907565b610777838460000151518460206107a1565b905092915050565b610787610907565b6107998384600001515184855161080e565b905092915050565b6107a9610907565b846020015184830111156107c7576107c6856002868501026108c7565b5b60006001836101000a0390508260200360080284901c935085518386820101858319825116178152815185880111156108005784870182525b505085915050949350505050565b610816610907565b825182111561082457600080fd5b8460200151828501111561084f5761084e85600261084888602001518887016108eb565b026108c7565b5b60008086518051876020830101935080888701111561086e5787860182525b60208701925050505b6020841061089a5780518252602082019150602081019050602084039350610877565b60006001856020036101000a03905080198251168184511681811785525050879350505050949350505050565b6060826000015190506108da8383610709565b506108e5838261077f565b50505050565b6000818311156108fd57829050610901565b8190505b92915050565b60405180604001604052806060815260200160008152509056fea165627a7a7230582077bdd55fda3ec1d8f2c3424c9e5948ba2c77493a57784da7ed94fda3ce1b0d2f0029",
  "source": "pragma solidity >0.4.23;\n\nimport \"./Algorithm.sol\";\nimport \"../BytesUtils.sol\";\nimport \"./RSAVerify.sol\";\n\n/**\n* @dev Implements the DNSSEC RSASHA256 algorithm.\n*/\ncontract RSASHA256Algorithm is Algorithm {\n    using BytesUtils for *;\n\n    function verify(bytes calldata key, bytes calldata data, bytes calldata sig) external view returns (bool) {\n        bytes memory exponent;\n        bytes memory modulus;\n\n        uint16 exponentLen = uint16(key.readUint8(4));\n        if (exponentLen != 0) {\n            exponent = key.substring(5, exponentLen);\n            modulus = key.substring(exponentLen + 5, key.length - exponentLen - 5);\n        } else {\n            exponentLen = key.readUint16(5);\n            exponent = key.substring(7, exponentLen);\n            modulus = key.substring(exponentLen + 7, key.length - exponentLen - 7);\n        }\n\n        // Recover the message from the signature\n        bool ok;\n        bytes memory result;\n        (ok, result) = RSAVerify.rsarecover(modulus, exponent, sig);\n\n        // Verify it ends with the hash of our data\n        return ok && sha256(data) == result.readBytes32(result.length - 32);\n    }\n}\n",
  "sourcePath": "/home/faycal/Desktop/cloud/DKIM-AUTH/contracts/algorithms/RSASHA256Algorithm.sol",
  "compiler": {
    "name": "solc",
    "version": "0.5.8+commit.23d335f2.Emscripten.clang"
  },
  "schemaVersion": "3.0.16",
  "updatedAt": "2019-11-05T05:30:45.556Z",
  "devdoc": {
    "details": "Implements the DNSSEC RSASHA256 algorithm.",
    "methods": {}
  },
  "userdoc": {
    "methods": {}
  }
}