{
  "contractName": "SHA1Digest",
  "abi": [
    {
      "constant": true,
      "inputs": [
        {
          "name": "data",
          "type": "bytes"
        },
        {
          "name": "hash",
          "type": "bytes"
        }
      ],
      "name": "verify",
      "outputs": [
        {
          "name": "",
          "type": "bool"
        }
      ],
      "payable": false,
      "stateMutability": "pure",
      "type": "function"
    }
  ],
  "bytecode": "0x608060405234801561001057600080fd5b50610782806100206000396000f3fe608060405234801561001057600080fd5b506004361061002b5760003560e01c8063f7e83aee14610030575b600080fd5b6100fc6004803603604081101561004657600080fd5b810190808035906020019064010000000081111561006357600080fd5b82018360208201111561007557600080fd5b8035906020019184600183028401116401000000008311171561009757600080fd5b9091929391929390803590602001906401000000008111156100b857600080fd5b8201836020820111156100ca57600080fd5b803590602001918460018302840111640100000000831117156100ec57600080fd5b9091929391929390505050610116565b604051808215151515815260200191505060405180910390f35b600080610171600085858080601f016020809104026020016040519081016040528093929190818152602001838380828437600081840152601f19601f820116905080830192505050505050506101f190919063ffffffff16565b6bffffffffffffffffffffffff1916905060006101d187878080601f016020809104026020016040519081016040528093929190818152602001838380828437600081840152601f19601f82011690508083019250505050505050610235565b9050806bffffffffffffffffffffffff1916821492505050949350505050565b6000825160148301111561020457600080fd5b7fffffffffffffffffffffffffffffffffffffffff0000000000000000000000008260208501015116905092915050565b60006040518251602084019350604067ffffffffffffffc0600183011601600982820310600181146102665761026d565b6040820191505b50776745230100efcdab890098badcfe001032547600c3d2e1f06102c8565b6000809050838310156102c157828201519050828403935060208410156102c0576001846020036101000a03198082169150505b5b9392505050565b60005b828110156106d6576102de84828961028c565b85526102ee84602083018961028c565b6020860152604081850310600181146103065761030f565b60808286038701535b506040830381146001811461032357610333565b6008850260208701511760208701525b5060405b60808110156103bf5760408103860151603882038701511860208203870151600c830388015118187c010000000100000001000000010000000100000001000000010000000163800000008204167ffffffffefffffffefffffffefffffffefffffffefffffffefffffffefffffffe6002830216179050808288015250600c81019050610337565b5060805b61014081101561044c57608081038601516070820387015118604082038701516018830388015118187c030000000300000003000000030000000300000003000000030000000363400000008204167ffffffffcfffffffcfffffffcfffffffcfffffffcfffffffcfffffffcfffffffc60048302161790508082880152506018810190506103c3565b508160008060005b60508110156106a857601481046000811461048657600181146104d0576002811461050d5760038114610570576105a9565b6501000000000085046a01000000000000000000008604189350836f01000000000000000000000000000000860416935083650100000000008604189350635a82799992506105a9565b6a010000000000000000000085046f01000000000000000000000000000000860418935083650100000000008604189350636ed9eba192506105a9565b6a010000000000000000000085046f01000000000000000000000000000000860417935083650100000000008604169350836a010000000000000000000086046f01000000000000000000000000000000870416179350638f1bbcdc92506105a9565b6a010000000000000000000085046f0100000000000000000000000000000086041893508365010000000000860418935063ca62c1d692505b50601f770800000000000000000000000000000000000000000000008504168063ffffffe073080000000000000000000000000000000000000087041617905080840190508063ffffffff86160190508083019050807c0100000000000000000000000000000000000000000000000000000000600484028c0151040190507401000000000000000000000000000000000000000081026501000000000086041794506a0100000000000000000000633fffffff6a040000000000000000000087041663c00000006604000000000000880416170277ffffffff00ffffffff000000000000ffffffff00ffffffff861617945050600181019050610454565b5077ffffffff00ffffffff00ffffffff00ffffffff00ffffffff8386011694505050506040810190506102cb565b506c0100000000000000000000000063ffffffff821667ffffffff000000006101008404166bffffffff0000000000000000620100008504166fffffffff000000000000000000000000630100000086041673ffffffff00000000000000000000000000000000640100000000870416171717170294505050505091905056fea165627a7a723058200f2ca8680be2a936f559cd24a5c0d11141654e14b0a3ff6e7c5230a560c955810029",
  "source": "pragma solidity >0.4.23;\n\nimport \"./Digest.sol\";\nimport \"../algorithms/BytesUtils.sol\";\nimport \"@ensdomains/solsha1/contracts/SHA1.sol\";\n\n/**\n* @dev Implements the DNSSEC SHA1 digest.\n*/\ncontract SHA1Digest {\n    using BytesUtils for *;\n\n    function verify(bytes calldata data, bytes calldata hash) external pure returns (bool) {\n        bytes32 expected = hash.readBytes20(0);\n        bytes20 computed = SHA1.sha1(data);\n        return expected == computed;\n    }\n}\n",
  "sourcePath": "/home/faycal/Desktop/cloud/DKIM-AUTH/contracts/digests/SHA1Digest.sol",
  "compiler": {
    "name": "solc",
    "version": "0.5.8+commit.23d335f2.Emscripten.clang"
  },
  "schemaVersion": "3.0.16",
  "updatedAt": "2019-11-05T05:30:45.568Z",
  "devdoc": {
    "details": "Implements the DNSSEC SHA1 digest.",
    "methods": {}
  },
  "userdoc": {
    "methods": {}
  }
}