{
  "contractName": "SHA256Digest",
  "abi": [
    {
      "constant": true,
      "inputs": [
        {
          "name": "data",
          "type": "bytes"
        },
        {
          "name": "hash",
          "type": "bytes"
        }
      ],
      "name": "verify",
      "outputs": [
        {
          "name": "",
          "type": "bool"
        }
      ],
      "payable": false,
      "stateMutability": "pure",
      "type": "function"
    }
  ],
  "bytecode": "0x608060405234801561001057600080fd5b50610225806100206000396000f3fe608060405234801561001057600080fd5b506004361061002b5760003560e01c8063f7e83aee14610030575b600080fd5b6100fc6004803603604081101561004657600080fd5b810190808035906020019064010000000081111561006357600080fd5b82018360208201111561007557600080fd5b8035906020019184600183028401116401000000008311171561009757600080fd5b9091929391929390803590602001906401000000008111156100b857600080fd5b8201836020820111156100ca57600080fd5b803590602001918460018302840111640100000000831117156100ec57600080fd5b9091929391929390505050610116565b604051808215151515815260200191505060405180910390f35b6000610170600084848080601f016020809104026020016040519081016040528093929190818152602001838380828437600081840152601f19601f820116905080830192505050505050506101d790919063ffffffff16565b60028686604051808383808284378083019250505092505050602060405180830381855afa1580156101a6573d6000803e3d6000fd5b5050506040513d60208110156101bb57600080fd5b8101908080519060200190929190505050149050949350505050565b600082516020830111156101ea57600080fd5b8160208401015190509291505056fea165627a7a72305820f8eaa79aff470d3f5fe91858fd1b767e95275fc2c0a3713432d1032b859fa40c0029",
  "source": "pragma solidity >0.4.23;\n\nimport \"./Digest.sol\";\nimport \"../algorithms/BytesUtils.sol\";\n\n/**\n* @dev Implements the DNSSEC SHA256 digest.\n*/\ncontract SHA256Digest is Digest {\n    using BytesUtils for *;\n\n    function verify(bytes calldata data, bytes calldata hash) external pure returns (bool) {\n        return sha256(data) == hash.readBytes32(0);\n    }\n}\n",
  "sourcePath": "/home/faycal/Desktop/cloud/DKIM-AUTH/contracts/digests/SHA256Digest.sol",
  "compiler": {
    "name": "solc",
    "version": "0.5.8+commit.23d335f2.Emscripten.clang"
  },
  "schemaVersion": "3.0.16",
  "updatedAt": "2019-11-05T05:30:45.569Z",
  "devdoc": {
    "details": "Implements the DNSSEC SHA256 digest.",
    "methods": {}
  },
  "userdoc": {
    "methods": {}
  }
}