{
  "contractName": "sha512",
  "abi": [
    {
      "constant": false,
      "inputs": [
        {
          "name": "message",
          "type": "bytes"
        }
      ],
      "name": "hash",
      "outputs": [
        {
          "name": "",
          "type": "uint256[2]"
        }
      ],
      "payable": false,
      "stateMutability": "nonpayable",
      "type": "function"
    }
  ],
  "bytecode": "0x610a8060405267428a2f98d728ae226080908152677137449123ef65cd60a05267b5c0fbcfec4d3b2f60c05267e9b5dba58189dbbc60e052673956c25bf348b538610100526759f111f1b605d0196101205267923f82a4af194f9b6101405267ab1c5ed5da6d81186101605267d807aa98a3030242610180526712835b0145706fbe6101a05267243185be4ee4b28c6101c05267550c7dc3d5ffb4e26101e0526772be5d74f27b896f610200526780deb1fe3b1696b161022052679bdc06a725c712356102405267c19bf174cf6926946102605267e49b69c19ef14ad26102805267efbe4786384f25e36102a052670fc19dc68b8cd5b56102c05267240ca1cc77ac9c656102e052672de92c6f592b027561030052674a7484aa6ea6e48361032052675cb0a9dcbd41fbd4610340526776f988da831153b56103605267983e5152ee66dfab6103805267a831c66d2db432106103a05267b00327c898fb213f6103c05267bf597fc7beef0ee46103e05267c6e00bf33da88fc26104005267d5a79147930aa725610420526706ca6351e003826f6104405267142929670a0e6e70610460526727b70a8546d22ffc61048052672e1b21385c26c9266104a052674d2c6dfc5ac42aed6104c0526753380d139d95b3df6104e05267650a73548baf63de6105005267766a0abb3c77b2a8610520526781c2c92e47edaee6610540526792722c851482353b6105605267a2bfe8a14cf103646105805267a81a664bbc4230016105a05267c24b8b70d0f897916105c05267c76c51a30654be306105e05267d192e819d6ef52186106005267d69906245565a9106106205267f40e35855771202a6106405267106aa07032bbd1b8610660526719a4c116b8d2d0c861068052671e376c085141ab536106a052672748774cdf8eeb996106c0526734b0bcb5e19b48a86106e05267391c0cb3c5c95a6361070052674ed8aa4ae3418acb61072052675b9cca4f7763e3736107405267682e6ff3d6b2b8a36107605267748f82ee5defb2fc610780526778a5636f43172f606107a0526784c87814a1f0ab726107c052678cc702081a6439ec6107e0526790befffa23631e286108005267a4506cebde82bde96108205267bef9a3f7b2c679156108405267c67178f2e372532b6108605267ca273eceea26619c6108805267d186b8c721c0c2076108a05267eada7dd6cde0eb1e6108c05267f57d4f7fee6ed1786108e0526706f067aa72176fba61090052670a637dc5a2c898a66109205267113f9804bef90dae61094052671b710b35131c471b610960526728db77f523047d84610980526732caab7b40c724936109a052673c9ebe0a15c9bebc6109c05267431d67c49c100d4c6109e052674cc5d4becb3e42b6610a005267597f299cfc657e2a610a2052675fcb6fab3ad6faec610a4052676c44198c4a475817610a6052610421906000906050610434565b5034801561042e57600080fd5b50610500565b6014830191839082156104c95791602002820160005b8382111561049457835183826101000a8154816001600160401b0302191690836001600160401b03160217905550926020019260080160208160070104928301926001030261044a565b80156104c75782816101000a8154906001600160401b030219169055600801602081600701049283019260010302610494565b505b506104d59291506104d9565b5090565b6104fd91905b808211156104d55780546001600160401b03191681556001016104df565b90565b6102be8061050f6000396000f3fe608060405234801561001057600080fd5b506004361061002b5760003560e01c8063aa1e84de14610030575b600080fd5b6100d66004803603602081101561004657600080fd5b81019060208101813564010000000081111561006157600080fd5b82018360208201111561007357600080fd5b8035906020019184600183028401116401000000008311171561009557600080fd5b91908080601f016020809104026020016040519081016040528093929190818152602001838380828437600092019190915250929550610111945050505050565b6040518082600260200280838360005b838110156100fe5781810151838201526020016100e6565b5050505090500191505060405180910390f35b610119610216565b610121610234565b825161012b610253565b676a09e667f3bcc908815267bb67ae8584caa73b6020820152673c6ef372fe94f82b604082015267a54ff53a5f1d36f1606082015267510e527fade682d16080820152679b05688c2b3e6c1f60a0820152671f83d9abfb41bd6b60c0820152675be0cd19137e217960e08201526000806101a3610272565b6000808060808590038089106101b957806101bb565b885b915060005b82811015610206578c81815181106101d457fe5b602001015160f81c60f81b60f81c8682890161010081106101f157fe5b60ff90921660209290920201526001016101c0565b5050505050505050505050919050565b60405180604001604052806002906020820280388339509192915050565b6040518061080001604052806040906020820280388339509192915050565b6040518061010001604052806008906020820280388339509192915050565b60405180612000016040528061010090602082028038833950919291505056fea165627a7a72305820fb0852339a05aea4b36c9da4bc182fac7aeb0306be3bda122a106c829947fc070029",
  "source": "pragma solidity >=0.4.21 <0.6.0;\n\n\ncontract sha512 {\n\tuint64[80] sha512_k = //ULL = uint64\n            [0x428a2f98d728ae22, 0x7137449123ef65cd,\n             0xb5c0fbcfec4d3b2f, 0xe9b5dba58189dbbc,\n             0x3956c25bf348b538, 0x59f111f1b605d019,\n             0x923f82a4af194f9b, 0xab1c5ed5da6d8118,\n             0xd807aa98a3030242, 0x12835b0145706fbe,\n             0x243185be4ee4b28c, 0x550c7dc3d5ffb4e2,\n             0x72be5d74f27b896f, 0x80deb1fe3b1696b1,\n             0x9bdc06a725c71235, 0xc19bf174cf692694,\n             0xe49b69c19ef14ad2, 0xefbe4786384f25e3,\n             0x0fc19dc68b8cd5b5, 0x240ca1cc77ac9c65,\n             0x2de92c6f592b0275, 0x4a7484aa6ea6e483,\n             0x5cb0a9dcbd41fbd4, 0x76f988da831153b5,\n             0x983e5152ee66dfab, 0xa831c66d2db43210,\n             0xb00327c898fb213f, 0xbf597fc7beef0ee4,\n             0xc6e00bf33da88fc2, 0xd5a79147930aa725,\n             0x06ca6351e003826f, 0x142929670a0e6e70,\n             0x27b70a8546d22ffc, 0x2e1b21385c26c926,\n             0x4d2c6dfc5ac42aed, 0x53380d139d95b3df,\n             0x650a73548baf63de, 0x766a0abb3c77b2a8,\n             0x81c2c92e47edaee6, 0x92722c851482353b,\n             0xa2bfe8a14cf10364, 0xa81a664bbc423001,\n             0xc24b8b70d0f89791, 0xc76c51a30654be30,\n             0xd192e819d6ef5218, 0xd69906245565a910,\n             0xf40e35855771202a, 0x106aa07032bbd1b8,\n             0x19a4c116b8d2d0c8, 0x1e376c085141ab53,\n             0x2748774cdf8eeb99, 0x34b0bcb5e19b48a8,\n             0x391c0cb3c5c95a63, 0x4ed8aa4ae3418acb,\n             0x5b9cca4f7763e373, 0x682e6ff3d6b2b8a3,\n             0x748f82ee5defb2fc, 0x78a5636f43172f60,\n             0x84c87814a1f0ab72, 0x8cc702081a6439ec,\n             0x90befffa23631e28, 0xa4506cebde82bde9,\n             0xbef9a3f7b2c67915, 0xc67178f2e372532b,\n             0xca273eceea26619c, 0xd186b8c721c0c207,\n             0xeada7dd6cde0eb1e, 0xf57d4f7fee6ed178,\n             0x06f067aa72176fba, 0x0a637dc5a2c898a6,\n             0x113f9804bef90dae, 0x1b710b35131c471b,\n             0x28db77f523047d84, 0x32caab7b40c72493,\n             0x3c9ebe0a15c9bebc, 0x431d67c49c100d4c,\n             0x4cc5d4becb3e42b6, 0x597f299cfc657e2a,\n             0x5fcb6fab3ad6faec, 0x6c44198c4a475817];\n    \n    uint constant DIGEST_SIZE = ( 512 / 8);\n    uint constant SHA384_512_BLOCK_SIZE = (1024/8);\n\n    function hash(bytes memory message ) public returns (uint[2] memory) {\n\n    \tuint8[DIGEST_SIZE] memory digest;\n        uint len = message.length;\n\n    \tuint64[8] memory m_h;\n\t\tm_h[0] = 0x6a09e667f3bcc908;\n\t\tm_h[1] = 0xbb67ae8584caa73b;\n\t\tm_h[2] = 0x3c6ef372fe94f82b;\n\t\tm_h[3] = 0xa54ff53a5f1d36f1;\n\t\tm_h[4] = 0x510e527fade682d1;\n\t\tm_h[5] = 0x9b05688c2b3e6c1f;\n\t\tm_h[6] = 0x1f83d9abfb41bd6b; \n\t\tm_h[7] = 0x5be0cd19137e2179;\n\n\t\tuint m_tot_len;\n\t\tuint m_len;\n\t\tuint8 [2 * SHA384_512_BLOCK_SIZE] memory m_block;\n\n\t\tuint block_nb;\n    \tuint new_len;\n        uint rem_len;\n        uint tmp_len;\n\n        tmp_len = SHA384_512_BLOCK_SIZE - m_len;\n        rem_len = len < tmp_len ? len : tmp_len;\n\n        for(uint i=0;i<rem_len;i++) m_block[m_len+i] = uint8(message[i]);\n    }\n}",
  "sourcePath": "/home/faycal/Desktop/cloud/DKIM-AUTH/contracts/algorithms/sha512.sol",
  "compiler": {
    "name": "solc",
    "version": "0.5.8+commit.23d335f2.Emscripten.clang"
  },
  "schemaVersion": "3.0.16",
  "updatedAt": "2019-11-08T16:38:16.738Z",
  "devdoc": {
    "methods": {}
  },
  "userdoc": {
    "methods": {}
  }
}