{
  "contractName": "SHA512",
  "abi": [
    {
      "constant": true,
      "inputs": [
        {
          "name": "point",
          "type": "uint256[2]"
        },
        {
          "name": "s",
          "type": "uint256"
        }
      ],
      "name": "scalarMult",
      "outputs": [
        {
          "name": "",
          "type": "uint256"
        },
        {
          "name": "",
          "type": "uint256"
        }
      ],
      "payable": false,
      "stateMutability": "view",
      "type": "function"
    },
    {
      "constant": true,
      "inputs": [
        {
          "name": "_a",
          "type": "uint256[2]"
        },
        {
          "name": "_b",
          "type": "uint256[2]"
        }
      ],
      "name": "ecAddVec",
      "outputs": [
        {
          "name": "",
          "type": "uint256[2]"
        }
      ],
      "payable": false,
      "stateMutability": "view",
      "type": "function"
    },
    {
      "constant": true,
      "inputs": [
        {
          "name": "_r",
          "type": "uint256"
        },
        {
          "name": "_p",
          "type": "uint256"
        },
        {
          "name": "_hx",
          "type": "uint256"
        }
      ],
      "name": "sha512modl",
      "outputs": [
        {
          "name": "hashmodl",
          "type": "uint256"
        }
      ],
      "payable": false,
      "stateMutability": "view",
      "type": "function"
    },
    {
      "constant": true,
      "inputs": [
        {
          "name": "Ai",
          "type": "uint256[8]"
        }
      ],
      "name": "arrayToLE",
      "outputs": [
        {
          "name": "high",
          "type": "uint256"
        },
        {
          "name": "low",
          "type": "uint256"
        }
      ],
      "payable": false,
      "stateMutability": "pure",
      "type": "function"
    },
    {
      "constant": true,
      "inputs": [
        {
          "name": "_r",
          "type": "uint256"
        },
        {
          "name": "_p",
          "type": "uint256"
        },
        {
          "name": "_hx",
          "type": "uint256"
        },
        {
          "name": "w",
          "type": "uint256[80]"
        }
      ],
      "name": "initW",
      "outputs": [],
      "payable": false,
      "stateMutability": "pure",
      "type": "function"
    },
    {
      "constant": true,
      "inputs": [
        {
          "name": "W",
          "type": "uint256[80]"
        }
      ],
      "name": "update",
      "outputs": [
        {
          "name": "",
          "type": "uint256[8]"
        }
      ],
      "payable": false,
      "stateMutability": "view",
      "type": "function"
    },
    {
      "constant": true,
      "inputs": [
        {
          "name": "value",
          "type": "uint256"
        },
        {
          "name": "d",
          "type": "uint256"
        }
      ],
      "name": "rotr",
      "outputs": [
        {
          "name": "",
          "type": "uint256"
        }
      ],
      "payable": false,
      "stateMutability": "pure",
      "type": "function"
    }
  ],
  "bytecode": "0x610a8060405267428a2f98d728ae226080908152677137449123ef65cd60a05267b5c0fbcfec4d3b2f60c05267e9b5dba58189dbbc60e052673956c25bf348b538610100526759f111f1b605d0196101205267923f82a4af194f9b6101405267ab1c5ed5da6d81186101605267d807aa98a3030242610180526712835b0145706fbe6101a05267243185be4ee4b28c6101c05267550c7dc3d5ffb4e26101e0526772be5d74f27b896f610200526780deb1fe3b1696b161022052679bdc06a725c712356102405267c19bf174cf6926946102605267e49b69c19ef14ad26102805267efbe4786384f25e36102a052670fc19dc68b8cd5b56102c05267240ca1cc77ac9c656102e052672de92c6f592b027561030052674a7484aa6ea6e48361032052675cb0a9dcbd41fbd4610340526776f988da831153b56103605267983e5152ee66dfab6103805267a831c66d2db432106103a05267b00327c898fb213f6103c05267bf597fc7beef0ee46103e05267c6e00bf33da88fc26104005267d5a79147930aa725610420526706ca6351e003826f6104405267142929670a0e6e70610460526727b70a8546d22ffc61048052672e1b21385c26c9266104a052674d2c6dfc5ac42aed6104c0526753380d139d95b3df6104e05267650a73548baf63de6105005267766a0abb3c77b2a8610520526781c2c92e47edaee6610540526792722c851482353b6105605267a2bfe8a14cf103646105805267a81a664bbc4230016105a05267c24b8b70d0f897916105c05267c76c51a30654be306105e05267d192e819d6ef52186106005267d69906245565a9106106205267f40e35855771202a6106405267106aa07032bbd1b8610660526719a4c116b8d2d0c861068052671e376c085141ab536106a052672748774cdf8eeb996106c0526734b0bcb5e19b48a86106e05267391c0cb3c5c95a6361070052674ed8aa4ae3418acb61072052675b9cca4f7763e3736107405267682e6ff3d6b2b8a36107605267748f82ee5defb2fc610780526778a5636f43172f606107a0526784c87814a1f0ab726107c052678cc702081a6439ec6107e0526790befffa23631e286108005267a4506cebde82bde96108205267bef9a3f7b2c679156108405267c67178f2e372532b6108605267ca273eceea26619c6108805267d186b8c721c0c2076108a05267eada7dd6cde0eb1e6108c05267f57d4f7fee6ed1786108e0526706f067aa72176fba61090052670a637dc5a2c898a66109205267113f9804bef90dae61094052671b710b35131c471b610960526728db77f523047d84610980526732caab7b40c724936109a052673c9ebe0a15c9bebc6109c05267431d67c49c100d4c6109e052674cc5d4becb3e42b6610a005267597f299cfc657e2a610a2052675fcb6fab3ad6faec610a4052676c44198c4a475817610a60526104219060009060506104bf565b50604051806101000160405280676a09e667f3bcc908815260200167bb67ae8584caa73b8152602001673c6ef372fe94f82b815260200167a54ff53a5f1d36f1815260200167510e527fade682d18152602001679b05688c2b3e6c1f8152602001671f83d9abfb41bd6b8152602001675be0cd19137e217981525060509060086104ac9291906104fd565b503480156104b957600080fd5b50610547565b82605081019282156104ed579160200282015b828111156104ed5782518255916020019190600101906104d2565b506104f992915061052a565b5090565b82600881019282156104ed57916020028201828111156104ed5782518255916020019190600101906104d2565b61054491905b808211156104f95760008155600101610530565b90565b610d59806105566000396000f3fe608060405234801561001057600080fd5b506004361061007d5760003560e01c806351b6c0a11161005b57806351b6c0a1146101b0578063755d4add146101d35780639b0fd8cd14610227578063dcb90bb9146102b25761007d565b806301f743371461008257806305e4fa19146100bd578063500d81071461014a575b600080fd5b6100ab6004803603606081101561009857600080fd5b5080359060208101359060400135610317565b60408051918252519081900360200190f35b6101116004803603610a008110156100d457600080fd5b8101908080610a00019060508060200260405190810160405280929190826050602002808284376000920191909152509194506104689350505050565b604051808261010080838360005b8381101561013757818101518382015260200161011f565b5050505090500191505060405180910390f35b6101976004803603606081101561016057600080fd5b60408051808201825291830192918183019183906002908390839080828437600092019190915250919450509035915061059c9050565b6040805192835260208301919091528051918290030190f35b6100ab600480360360408110156101c657600080fd5b5080359060200135610651565b61019760048036036101008110156101ea57600080fd5b81019080806101000190600880602002604051908101604052809291908260086020028082843760009201919091525091945061066a9350505050565b61029b6004803603608081101561023d57600080fd5b6040805180820182529183019291818301918390600290839083908082843760009201919091525050604080518082018252929594938181019392509060029083908390808284376000920191909152509194506107469350505050565b60408051825181529081908390808383602061011f565b6103156004803603610a608110156102c957600080fd5b60408051610a00818101835284359460208101359493810135938101929091610a6083019190606084019060509083908390808284376000920191909152509194506107ee9350505050565b005b6000610321610c6b565b61032d858585846107ee565b610335610c8a565b61033e82610468565b905060005b6008811015610390576050816008811061035957fe5b015482826008811061036757fe5b60200201510167ffffffffffffffff1682826008811061038357fe5b6020020152600101610343565b5060008061039d8361066a565b915091507f1000000000000000000000000000000014def9dea2f79cd65812631a5cf5d3ed806103c957fe5b7f1000000000000000000000000000000014def9dea2f79cd65812631a5cf5d3ed600183097f1000000000000000000000000000000014def9dea2f79cd65812631a5cf5d3ed806001700100000000000000000000000000000000097f1000000000000000000000000000000014def9dea2f79cd65812631a5cf5d3ed7001000000000000000000000000000000008709090898975050505050505050565b610470610c8a565b60505460515460525460535460545460555460565460575460005b605081101561055c5760006104a1866029610651565b6104ac876012610651565b6104b788600e610651565b18189050848616861985161860008084605081106104d157fe5b01548e85605081106104df57fe5b602002015183858801010101905060006104fa8d6027610651565b6105058e6022610651565b6105108f601c610651565b8b9a999850181890508b8b168c8e168e8d16181880820168010000000000000000848d088f9e9d9c509a50680100000000000000008185089e50506001909501945061048b9350505050565b5060408051610100810182529889526020890197909752958701949094526060860192909252608085015260a084015260c083015260e082015292915050565b6000806105a7610ca9565b6105af610ca9565b85518252602080870151838201526001604080850182905260008452918301819052908201525b841561060c5784600116600114156105f5576105f28183610932565b90505b600185901c945061060582610ac8565b91506105d6565b600061061b8260400151610c0b565b90506013600160ff1b03825182900982526013600160ff1b03818360200151096020830181905291519791965090945050505050565b604081900382901b91901c1767ffffffffffffffff1690565b60008080836003602002015160408560026020020151901b60808660016020020151901b60c08760006020020151901b17171790506000846007602002015160408660066020020151901b60808760056020020151901b60c08860046020020151901b17171790506040518260208201528160408201526060810160405260018101805b6020820181101561071257805160ff168282036008021b95909501946001016106ee565b50602001805b6020820181101561073c57805160ff168282036008021b9690960195600101610718565b5050505050915091565b61074e610cca565b610756610ca9565b61075e610ca9565b84518252602080860151838201526001604080850182905286518452868301519284019290925290820152610791610ca9565b61079b8383610932565b905060006107ac8260400151610c0b565b905060405180604001604052806013600160ff1b03806107c857fe5b845184900981526020016013600160ff1b03838560200151099052979650505050505050565b60408051858152602081018590528082018490527f80000000000000000000000000000000000000000000000000000000000003006060820152608081019091526801000000000000000060005b6010811015610887576008810283017fffffffffffffffffffffffffffffffffffffffffffffffffffffffffffffffe8015167ffffffffffffffff166020820285015260010161083c565b5060105b6050811015610929576020600f82030284015160206002830302850151602060108403028601516020600785030287015167ffffffffffffffff8460071c8560381b8660081c1786603f1b8760011c1718181667ffffffffffffffff8460061c8560031b86603d1c1786602d1b8760131c1718181667ffffffffffffffff8184018386010116602088028b015250505050505060018101905061088b565b50505050505050565b61093a610ca9565b610942610ce8565b6013600160ff1b03836040015185604001510981526013600160ff1b038151800960208201526013600160ff1b03835185510960408201526013600160ff1b03836020015185602001510960608201526013600160ff1b038082606001518360400151097f52036cee2b6ffe738cc740797779e89800700a4d4141d8ab75eb4dca135978a30960808201526013600160ff1b0381608001516013600160ff1b030382602001510860a08201526013600160ff1b03816080015182602001510860c08201526013600160ff1b038082606001516013600160ff1b03036013600160ff1b0380610a2c57fe5b84604001516013600160ff1b03036013600160ff1b0380610a4957fe5b6013600160ff1b0360208a01518a51086013600160ff1b0360208c01518c51080908086013600160ff1b0360a08401518451090982526013600160ff1b038082604001518360600151086013600160ff1b0360c08401518451090960208301526013600160ff1b038160c001518260a001510960408301525092915050565b610ad0610ca9565b610ad8610ce8565b6013600160ff1b03602084015184510881526013600160ff1b038151800960208201526013600160ff1b038351800960408201526013600160ff1b03602084015180096060820181905260408201516013600160ff1b03908103608084018190529091900860a08201526013600160ff1b036040840151800960e08201526013600160ff1b03808260e001516002096013600160ff1b03038260a001510860c08201526013600160ff1b0360c08201516013600160ff1b0383606001516013600160ff1b03036013600160ff1b0380610bad57fe5b85604001516013600160ff1b0303866020015108080982526013600160ff1b038082606001516013600160ff1b03038360800151088260a001510960208301526013600160ff1b038160c001518260a0015109604083015250919050565b60008060026013600160ff1b0303905060006013600160ff1b03905060405160208152602080820152602060408201528460608201528260808201528160a082015260208160c0836005600019fa610c6257600080fd5b51949350505050565b60405180610a0001604052806050906020820280388339509192915050565b6040518061010001604052806008906020820280388339509192915050565b60405180606001604052806000815260200160008152602001600081525090565b60405180604001604052806002906020820280388339509192915050565b6040518061010001604052806000815260200160008152602001600081526020016000815260200160008152602001600081526020016000815260200160008152509056fea165627a7a723058206e60d75893f0a190044149dfc387f57c355a8307f325bdc996268cd4e28857510029",
  "source": "pragma solidity >=0.4.21 <0.6.0;\nimport \"./ED25519.sol\";\n\ncontract SHA512 is ED25519 {\n\n  uint[80]  K = \n            [ uint256(0x428a2f98d728ae22), 0x7137449123ef65cd, 0xb5c0fbcfec4d3b2f, 0xe9b5dba58189dbbc, 0x3956c25bf348b538, \n              0x59f111f1b605d019, 0x923f82a4af194f9b, 0xab1c5ed5da6d8118, 0xd807aa98a3030242, 0x12835b0145706fbe, \n              0x243185be4ee4b28c, 0x550c7dc3d5ffb4e2, 0x72be5d74f27b896f, 0x80deb1fe3b1696b1, 0x9bdc06a725c71235, \n              0xc19bf174cf692694, 0xe49b69c19ef14ad2, 0xefbe4786384f25e3, 0x0fc19dc68b8cd5b5, 0x240ca1cc77ac9c65, \n              0x2de92c6f592b0275, 0x4a7484aa6ea6e483, 0x5cb0a9dcbd41fbd4, 0x76f988da831153b5, 0x983e5152ee66dfab, \n              0xa831c66d2db43210, 0xb00327c898fb213f, 0xbf597fc7beef0ee4, 0xc6e00bf33da88fc2, 0xd5a79147930aa725, \n              0x06ca6351e003826f, 0x142929670a0e6e70, 0x27b70a8546d22ffc, 0x2e1b21385c26c926, 0x4d2c6dfc5ac42aed, \n              0x53380d139d95b3df, 0x650a73548baf63de, 0x766a0abb3c77b2a8, 0x81c2c92e47edaee6, 0x92722c851482353b, \n              0xa2bfe8a14cf10364, 0xa81a664bbc423001, 0xc24b8b70d0f89791, 0xc76c51a30654be30, 0xd192e819d6ef5218, \n              0xd69906245565a910, 0xf40e35855771202a, 0x106aa07032bbd1b8, 0x19a4c116b8d2d0c8, 0x1e376c085141ab53, \n              0x2748774cdf8eeb99, 0x34b0bcb5e19b48a8, 0x391c0cb3c5c95a63, 0x4ed8aa4ae3418acb, 0x5b9cca4f7763e373, \n              0x682e6ff3d6b2b8a3, 0x748f82ee5defb2fc, 0x78a5636f43172f60, 0x84c87814a1f0ab72, 0x8cc702081a6439ec, \n              0x90befffa23631e28, 0xa4506cebde82bde9, 0xbef9a3f7b2c67915, 0xc67178f2e372532b, 0xca273eceea26619c, \n              0xd186b8c721c0c207, 0xeada7dd6cde0eb1e, 0xf57d4f7fee6ed178, 0x06f067aa72176fba, 0x0a637dc5a2c898a6, \n              0x113f9804bef90dae, 0x1b710b35131c471b, 0x28db77f523047d84, 0x32caab7b40c72493, 0x3c9ebe0a15c9bebc, \n              0x431d67c49c100d4c, 0x4cc5d4becb3e42b6, 0x597f299cfc657e2a, 0x5fcb6fab3ad6faec, 0x6c44198c4a475817];\n    \n  uint[8]  H = [ uint256(0x6a09e667f3bcc908), 0xbb67ae8584caa73b, 0x3c6ef372fe94f82b, 0xa54ff53a5f1d36f1, \n           0x510e527fade682d1, 0x9b05688c2b3e6c1f, 0x1f83d9abfb41bd6b, 0x5be0cd19137e2179 ];\n\n  function sha512modl(uint256 _r, uint256 _p, uint256 _hx ) public view returns(uint hashmodl){\n\n    uint[80] memory W;\n    initW(_r,_p,_hx ,W);\n    uint[8] memory Ai = update(W);\n    \n    for(uint i=0;i<8;i++) Ai[i] = (Ai[i] + H[i]) & 0xFFFFFFFFFFFFFFFF;\n    (uint high, uint low) = arrayToLE(Ai);\n\n    hashmodl  =addmod(mulmod(mulmod(high,2**128,l),mulmod(2**128,1,l),l),mulmod(low,1,l),l);\n  }\n\n  function arrayToLE(uint[8] memory Ai)  pure public returns  (uint high, uint low){\n    uint _high = (Ai[0] << 192) | (Ai[1] << 128) | (Ai[2] << 64) | Ai[3];\n    uint _low  = (Ai[4] << 192) | (Ai[5] << 128)| (Ai[6] << 64) | Ai[7];\n    assembly{\n      let block := mload(0x40)\n      mstore(add(block,0x20),_high)\n      mstore(add(block,0x40),_low)\n      mstore(0x40,add(block,0x60))\n      let start_add := add(block,1)\n      for { let i := start_add } lt(i, add(start_add,32)) { i := add(i, 1) } {\n        low := add(low,shl(mul(sub(i,start_add),8),and(mload(i),0xFF)))\n      }\n      start_add := add(start_add,32)\n      for { let i := start_add } lt(i, add(start_add,32)){ i := add(i, 1) } {\n        high := add(high,shl(mul(sub(i,start_add),8),and(mload(i),0xFF)))\n      }\n    }\n  }\n\n  function initW(uint _r, uint _p, uint _hx , uint[80] memory w) public pure {\n    assembly {\n      let block := mload(0x40)\n      let modulo :=exp(2,64)\n      mstore(add(block,0x00),_r)\n      mstore(add(block,0x20),_p)\n      mstore(add(block,0x40),_hx)\n      mstore(add(block,0x60),or(768,shl(128,exp(2,127))))\n      mstore(0x40,add(block,0x80))\n      \n      for { let i := 0 } lt(i, 16) { i := add(i, 1) } {\n        mstore(\n          add(w,mul(0x20,i)),\n          and(\n            mload(add(sub(block,24),mul(i,8))),\n            0xFFFFFFFFFFFFFFFF\n          )\n        )\n      }\n      for { let i := 16 } lt(i, 80) { i := add(i, 1) } {\n        let w_a := mload(add(w,mul(sub(i,15),0x20)))\n        let w_b := mload(add(w,mul(sub(i,2),0x20)))\n        let w_c := mload(add(w,mul(sub(i,16),0x20)))\n        let w_d := mload(add(w,mul(sub(i,7),0x20)))\n\n        let s0 := and(xor(xor(or(shr(1,w_a),shl(63,w_a)),or(shr(8,w_a),shl(56,w_a))),shr(7,w_a)),0xFFFFFFFFFFFFFFFF)\n        let s1 := and(xor(xor(or(shr(19,w_b),shl(45,w_b)),or(shr(61,w_b),shl(3,w_b))),shr(6,w_b)),0xFFFFFFFFFFFFFFFF)\n        \n        mstore(add(w,mul(i,0x20)),and(\n            add(add(w_c,s0),add(w_d,s1)),0xFFFFFFFFFFFFFFFF\n          )\n        )\n      }\n    }\n  }\n\n  function update(uint[80] memory W) public view returns(uint[8] memory){\n    \n    uint a = H[0];\n    uint b = H[1];\n    uint c = H[2];\n    uint d = H[3];\n    uint e = H[4];\n    uint f = H[5];\n    uint g = H[6];\n    uint h = H[7];\n    \n    for(uint i=0;i<80;i++) {\n    \n      /*uint modulo = 2**64;*/\n      \n      uint S1 = ( rotr(e,14) ) ^ ( rotr(e,18) ) ^ ( rotr(e,41) );\n      uint ch = ( e & f ) ^ ((~e) & g);\n      uint temp1 = h+S1+ch+W[i]+K[i];\n      uint S0 = (rotr(a,28)) ^ (rotr(a,34)) ^ (rotr(a,39));\n      uint maj = ( a & b ) ^ ( a & c); \n      maj = maj ^ ( b & c );\n      uint temp2 = S0 + maj;\n\n      h = g;\n      g = f;\n      f = e;\n      e = addmod(d,temp1, 2**64);\n      d = c;\n      c = b;\n      b = a;\n      a = addmod(temp1,temp2, 2**64);\n    }\n    return [ a, b, c, d, e, f, g, h ];\n  }\n\n  /*  function finalize(uint[8] memory H,uint[8] memory A) public view {\n    uint modulo = 2**64;\n    for(uint i=0;i<8;i++) H[i] = addmod(H[i],A[i],modulo); \n  }*/\n\n  function rotr(uint value, uint d) public pure returns (uint) {\n    return (value >> d | value << (64-d)) & 0xFFFFFFFFFFFFFFFF;\n  }\n}\n",
  "sourcePath": "/home/faycal/Desktop/cloud/ddkim-verification/contracts/algorithms/SHA512.sol",
  "compiler": {
    "name": "solc",
    "version": "0.5.8+commit.23d335f2.Emscripten.clang"
  },
  "schemaVersion": "3.0.16",
  "updatedAt": "2019-11-11T10:05:56.101Z",
  "devdoc": {
    "methods": {}
  },
  "userdoc": {
    "methods": {}
  }
}